{
  "contractName": "ArbitrableTransaction",
  "abi": [
    {
      "constant": false,
      "inputs": [
        {
          "name": "_extraData",
          "type": "bytes"
        }
      ],
      "name": "appeal",
      "outputs": [],
      "payable": true,
      "stateMutability": "payable",
      "type": "function"
    },
    {
      "constant": true,
      "inputs": [],
      "name": "arbitratorExtraData",
      "outputs": [
        {
          "name": "",
          "type": "bytes"
        }
      ],
      "payable": false,
      "stateMutability": "view",
      "type": "function"
    },
    {
      "constant": true,
      "inputs": [],
      "name": "partyA",
      "outputs": [
        {
          "name": "",
          "type": "address"
        }
      ],
      "payable": false,
      "stateMutability": "view",
      "type": "function"
    },
    {
      "constant": false,
      "inputs": [],
      "name": "timeOutByPartyA",
      "outputs": [],
      "payable": false,
      "stateMutability": "nonpayable",
      "type": "function"
    },
    {
      "constant": true,
      "inputs": [],
      "name": "status",
      "outputs": [
        {
          "name": "",
          "type": "uint8"
        }
      ],
      "payable": false,
      "stateMutability": "view",
      "type": "function"
    },
    {
      "constant": true,
      "inputs": [],
      "name": "partyB",
      "outputs": [
        {
          "name": "",
          "type": "address"
        }
      ],
      "payable": false,
      "stateMutability": "view",
      "type": "function"
    },
    {
      "constant": false,
      "inputs": [
        {
          "name": "_disputeID",
          "type": "uint256"
        },
        {
          "name": "_ruling",
          "type": "uint256"
        }
      ],
      "name": "rule",
      "outputs": [],
      "payable": false,
      "stateMutability": "nonpayable",
      "type": "function"
    },
    {
      "constant": true,
      "inputs": [],
      "name": "partyAFee",
      "outputs": [
        {
          "name": "",
          "type": "uint256"
        }
      ],
      "payable": false,
      "stateMutability": "view",
      "type": "function"
    },
    {
      "constant": true,
      "inputs": [],
      "name": "partyBFee",
      "outputs": [
        {
          "name": "",
          "type": "uint256"
        }
      ],
      "payable": false,
      "stateMutability": "view",
      "type": "function"
    },
    {
      "constant": true,
      "inputs": [],
      "name": "arbitrator",
      "outputs": [
        {
          "name": "",
          "type": "address"
        }
      ],
      "payable": false,
      "stateMutability": "view",
      "type": "function"
    },
    {
      "constant": true,
      "inputs": [],
      "name": "timeout",
      "outputs": [
        {
          "name": "",
          "type": "uint256"
        }
      ],
      "payable": false,
      "stateMutability": "view",
      "type": "function"
    },
    {
      "constant": false,
      "inputs": [],
      "name": "timeOutByPartyB",
      "outputs": [],
      "payable": false,
      "stateMutability": "nonpayable",
      "type": "function"
    },
    {
      "constant": true,
      "inputs": [],
      "name": "lastInteraction",
      "outputs": [
        {
          "name": "",
          "type": "uint256"
        }
      ],
      "payable": false,
      "stateMutability": "view",
      "type": "function"
    },
    {
      "constant": false,
      "inputs": [],
      "name": "payArbitrationFeeByPartyA",
      "outputs": [],
      "payable": true,
      "stateMutability": "payable",
      "type": "function"
    },
    {
      "constant": true,
      "inputs": [],
      "name": "amount",
      "outputs": [
        {
          "name": "",
          "type": "uint256"
        }
      ],
      "payable": false,
      "stateMutability": "view",
      "type": "function"
    },
    {
      "constant": true,
      "inputs": [],
      "name": "disputeID",
      "outputs": [
        {
          "name": "",
          "type": "uint256"
        }
      ],
      "payable": false,
      "stateMutability": "view",
      "type": "function"
    },
    {
      "constant": false,
      "inputs": [],
      "name": "payArbitrationFeeByPartyB",
      "outputs": [],
      "payable": true,
      "stateMutability": "payable",
      "type": "function"
    },
    {
      "constant": false,
      "inputs": [
        {
          "name": "_evidence",
          "type": "string"
        }
      ],
      "name": "submitEvidence",
      "outputs": [],
      "payable": false,
      "stateMutability": "nonpayable",
      "type": "function"
    },
    {
      "inputs": [
        {
          "name": "_arbitrator",
          "type": "address"
        },
        {
          "name": "_timeout",
          "type": "uint256"
        },
        {
          "name": "_partyB",
          "type": "address"
        },
        {
          "name": "_arbitratorExtraData",
          "type": "bytes"
        },
        {
          "name": "_metaEvidence",
          "type": "string"
        }
      ],
      "payable": true,
      "stateMutability": "payable",
      "type": "constructor"
    },
    {
      "anonymous": false,
      "inputs": [
        {
          "indexed": false,
          "name": "_party",
          "type": "uint8"
        }
      ],
      "name": "HasToPayFee",
      "type": "event"
    },
    {
      "anonymous": false,
      "inputs": [
        {
          "indexed": true,
          "name": "_arbitrator",
          "type": "address"
        },
        {
          "indexed": true,
          "name": "_disputeID",
          "type": "uint256"
        },
        {
          "indexed": false,
          "name": "_rulingOptions",
          "type": "string"
        }
      ],
      "name": "Dispute",
      "type": "event"
    },
    {
      "anonymous": false,
      "inputs": [
        {
          "indexed": true,
          "name": "_arbitrator",
          "type": "address"
        },
        {
          "indexed": true,
          "name": "_disputeID",
          "type": "uint256"
        },
        {
          "indexed": false,
          "name": "_ruling",
          "type": "uint256"
        }
      ],
      "name": "Ruling",
      "type": "event"
    },
    {
      "anonymous": false,
      "inputs": [
        {
          "indexed": true,
          "name": "_metaEvidenceID",
          "type": "uint256"
        },
        {
          "indexed": false,
          "name": "_evidence",
          "type": "string"
        }
      ],
      "name": "MetaEvidence",
      "type": "event"
    },
    {
      "anonymous": false,
      "inputs": [
        {
          "indexed": true,
          "name": "_arbitrator",
          "type": "address"
        },
        {
          "indexed": true,
          "name": "_disputeID",
          "type": "uint256"
        },
        {
          "indexed": false,
          "name": "_metaEvidenceID",
          "type": "uint256"
        }
      ],
      "name": "LinkMetaEvidence",
      "type": "event"
    },
    {
      "anonymous": false,
      "inputs": [
        {
          "indexed": true,
          "name": "_arbitrator",
          "type": "address"
        },
        {
          "indexed": true,
          "name": "_disputeID",
          "type": "uint256"
        },
        {
          "indexed": false,
          "name": "_party",
          "type": "address"
        },
        {
          "indexed": false,
          "name": "_evidence",
          "type": "string"
        }
      ],
      "name": "Evidence",
      "type": "event"
    },
    {
      "constant": false,
      "inputs": [],
      "name": "pay",
      "outputs": [],
      "payable": false,
      "stateMutability": "nonpayable",
      "type": "function"
    },
    {
      "constant": false,
      "inputs": [
        {
          "name": "_amountReimbursed",
          "type": "uint256"
        }
      ],
      "name": "reimburse",
      "outputs": [],
      "payable": false,
      "stateMutability": "nonpayable",
      "type": "function"
    }
  ],
  "bytecode": "0x60806040526040516200121a3803806200121a8339810160409081528151602080840151928401516060850151608086015160008054600160a060020a031916600160a060020a0387161790559086018051949692949093919092019186918691869186918691869184916200007b9160019184019062000161565b50505060028490556003805433600160a060020a03199182161790915560048054909116600160a060020a03851617905560408051602080825283518183015283516000937f61606860eb6c87306811e2695215385101daab53bd6ab4e9f9049aead9363c7d938693909283928301918501908083838a5b838110156200010d578181015183820152602001620000f3565b50505050905090810190601f1680156200013b5780820380516001836020036101000a031916815260200191505b509250505060405180910390a25050600a80543401905550620002069650505050505050565b828054600181600116156101000203166002900490600052602060002090601f016020900481019282601f10620001a457805160ff1916838001178555620001d4565b82800160010185558215620001d4579182015b82811115620001d4578251825591602001919060010190620001b7565b50620001e2929150620001e6565b5090565b6200020391905b80821115620001e25760008155600101620001ed565b90565b61100480620002166000396000f3006080604052600436106101115763ffffffff7c0100000000000000000000000000000000000000000000000000000000600035041663069fae2a81146101165780630c7ac7b61461016457806310e1d8ca146101ee57806319e2641e1461021f5780631b9265b814610234578063200d2ed2146102495780632904011314610282578063311a6c56146102975780634a44c2e4146102b25780634b40c974146102ca578063512491f1146102f15780636cc6cde11461030657806370dea79a1461031b578063853c80ce146103305780638f71a26514610345578063a01096311461035a578063aa8c217c14610362578063b0a1e2b414610377578063b1bcce3a1461038c578063bac91e2e14610394575b600080fd5b6040805160206004803580820135601f81018490048402850184019095528484526101629436949293602493928401919081908401838280828437509497506103ed9650505050505050565b005b34801561017057600080fd5b5061017961050b565b6040805160208082528351818301528351919283929083019185019080838360005b838110156101b357818101518382015260200161019b565b50505050905090810190601f1680156101e05780820380516001836020036101000a031916815260200191505b509250505060405180910390f35b3480156101fa57600080fd5b50610203610598565b60408051600160a060020a039092168252519081900360200190f35b34801561022b57600080fd5b506101626105a7565b34801561024057600080fd5b506101626105fe565b34801561025557600080fd5b5061025e610659565b6040518082600481111561026e57fe5b60ff16815260200191505060405180910390f35b34801561028e57600080fd5b50610203610662565b3480156102a357600080fd5b50610162600435602435610671565b3480156102be57600080fd5b506101626004356106cd565b3480156102d657600080fd5b506102df61073a565b60408051918252519081900360200190f35b3480156102fd57600080fd5b506102df610740565b34801561031257600080fd5b50610203610746565b34801561032757600080fd5b506102df610755565b34801561033c57600080fd5b5061016261075b565b34801561035157600080fd5b506102df6107b0565b6101626107b6565b34801561036e57600080fd5b506102df610977565b34801561038357600080fd5b506102df61097d565b610162610983565b3480156103a057600080fd5b506040805160206004803580820135601f8101849004840285018401909552848452610162943694929360249392840191908190840183828082843750949750610b249650505050505050565b600354600160a060020a03163314806104105750600454600160a060020a031633145b151561041b57600080fd5b60008054600854604080517f49912f880000000000000000000000000000000000000000000000000000000081526004810183815260248201928352865160448301528651600160a060020a03909516956349912f88953495948994909260649091019160208601918190849084905b838110156104a357818101518382015260200161048b565b50505050905090810190601f1680156104d05780820380516001836020036101000a031916815260200191505b5093505050506000604051808303818588803b1580156104ef57600080fd5b505af1158015610503573d6000803e3d6000fd5b505050505050565b60018054604080516020600284861615610100026000190190941693909304601f810184900484028201840190925281815292918301828280156105905780601f1061056557610100808354040283529160200191610590565b820191906000526020600020905b81548152906001019060200180831161057357829003601f168201915b505050505081565b600354600160a060020a031681565b600354600160a060020a031633146105be57600080fd5b600260095460ff1660048111156105d157fe5b146105db57600080fd5b600254600754014210156105ee57600080fd5b6008546105fc906001610c47565b565b600354600160a060020a0316331461061557600080fd5b600454600a54604051600160a060020a039092169181156108fc0291906000818181858888f19350505050158015610651573d6000803e3d6000fd5b506000600a55565b60095460ff1681565b600454600160a060020a031681565b600054600160a060020a0316331461068857600080fd5b604080518281529051839133917f394027a5fa6e098a1191094d1719d6929b9abc535fcc0c8f448d6a4e756222769181900360200190a36106c98282610c47565b5050565b600454600160a060020a031633146106e457600080fd5b600a548111156106f357600080fd5b600354604051600160a060020a039091169082156108fc029083906000818181858888f1935050505015801561072d573d6000803e3d6000fd5b50600a8054919091039055565b60055481565b60065481565b600054600160a060020a031681565b60025481565b600454600160a060020a0316331461077257600080fd5b600160095460ff16600481111561078557fe5b1461078f57600080fd5b600254600754014210156107a257600080fd5b6008546105fc906002610c47565b60075481565b600354600090600160a060020a031633146107d057600080fd5b6000546040517ff7434ea90000000000000000000000000000000000000000000000000000000081526020600482019081526001805460026000198284161561010002019091160460248401819052600160a060020a039094169363f7434ea99391929182916044909101908490801561088b5780601f106108605761010080835404028352916020019161088b565b820191906000526020600020905b81548152906001019060200180831161086e57829003601f168201915b505092505050602060405180830381600087803b1580156108ab57600080fd5b505af11580156108bf573d6000803e3d6000fd5b505050506040513d60208110156108d557600080fd5b5051600580543401908190559091508111156108f057600080fd5b600360095460ff16600481111561090357fe5b1061090d57600080fd5b4260075560065481111561096b576009805460ff191660021790556040517fba8db766b5582c21593909b57af48297714ea2c508bfff6c537ce36bb853e5689060019080825b60ff16815260200191505060405180910390a1610974565b61097481610cc9565b50565b600a5481565b60085481565b600454600090600160a060020a0316331461099d57600080fd5b6000546040517ff7434ea90000000000000000000000000000000000000000000000000000000081526020600482019081526001805460026000198284161561010002019091160460248401819052600160a060020a039094169363f7434ea993919291829160449091019084908015610a585780601f10610a2d57610100808354040283529160200191610a58565b820191906000526020600020905b815481529060010190602001808311610a3b57829003601f168201915b505092505050602060405180830381600087803b158015610a7857600080fd5b505af1158015610a8c573d6000803e3d6000fd5b505050506040513d6020811015610aa257600080fd5b505160068054340190819055909150811115610abd57600080fd5b600360095460ff166004811115610ad057fe5b10610ada57600080fd5b4260075560055481111561096b576009805460ff191660011790556040517fba8db766b5582c21593909b57af48297714ea2c508bfff6c537ce36bb853e568906000908082610953565b600354600160a060020a0316331480610b475750600454600160a060020a031633145b1515610b5257600080fd5b600360095460ff166004811115610b6557fe5b1015610b7057600080fd5b6008546000809054906101000a9004600160a060020a0316600160a060020a03167fdccf2f8b2cc26eafcd61905cba744cff4b81d14740725f6376390dc6298a6a3c33846040518083600160a060020a0316600160a060020a0316815260200180602001828103825283818151815260200191508051906020019080838360005b83811015610c09578181015183820152602001610bf1565b50505050905090810190601f168015610c365780820380516001836020036101000a031916815260200191505b50935050505060405180910390a350565b610c518282610f10565b6001811415610c8b57600354600a54604051600160a060020a039092169181156108fc0291906000818181858888f1935050505050610cc0565b6002811415610cc057600454600a54604051600160a060020a039092169181156108fc0291906000818181858888f150505050505b50506000600a55565b6009805460ff19166003179055600054604080517fc13517e100000000000000000000000000000000000000000000000000000000815260026004820181815260248301938452600180546101008183161502600019011683900460448501819052600160a060020a039096169563c13517e1958895929392909160649091019084908015610d995780601f10610d6e57610100808354040283529160200191610d99565b820191906000526020600020905b815481529060010190602001808311610d7c57829003601f168201915b505093505050506020604051808303818588803b158015610db957600080fd5b505af1158015610dcd573d6000803e3d6000fd5b50505050506040513d6020811015610de457600080fd5b5051600881905560008054604080518082018252601981527f506172747920412077696e733b506172747920422077696e7300000000000000602082810191825283518181528351918101919091528251600160a060020a03909516957f775071bee3f2d409883bcb9dfcef6befa9343668ab341f76fcc5817b52a126119593949193849392840192918190849084905b83811015610e8d578181015183820152602001610e75565b50505050905090810190601f168015610eba5780820380516001836020036101000a031916815260200191505b509250505060405180910390a3600854600080546040805192835251600160a060020a03909116917f21da1f02e8071a7680b73ad6e5bc1aee1f8f0620a0a08a0333be1f0ca9dd7fec919081900360200190a350565b6008548214610f1e57600080fd5b6002811115610f2c57600080fd5b6001811415610f7c57600354600654600554600160a060020a03909216916108fc9110610f5b57600654610f5f565b6005545b6040518115909202916000818181858888f1935050505050610fc7565b6002811415610fc757600454600654600554600160a060020a03909216916108fc9110610fab57600654610faf565b6005545b6040518115909202916000818181858888f150505050505b50506009805460ff191660041790555600a165627a7a72305820193bb7eb27f70c147199f9c8fd542e7dd99477619cc2aedb1c778bd0421d48160029",
  "source": "/**\n *  @title Arbitrable Transaction\n *  @author Clément Lesaege - <clement@lesaege.com>\n *  Bug Bounties: This code hasn't undertaken a bug bounty program yet.\n */\n\n\npragma solidity ^0.4.15;\nimport \"./TwoPartyArbitrable.sol\";\n\n/** @title Arbitrable Transaction\n *  This is a a contract for an arbitrated transaction which can be reversed by the arbitrator.\n *  This can be used for buying goods, services and for paying freelancers.\n *  Party A is the payer. Party B is the payee.\n */\n contract ArbitrableTransaction is TwoPartyArbitrable {\n    string constant RULING_OPTIONS = \"Reimburse partyA;Pay partyB\";\n\n    uint public amount; // Amount sent by party A.\n\n\n    /** @dev Constructor. Choose the arbitrator. Should be called by party A (the payer).\n     *  @param _arbitrator The arbitrator of the contract.\n     *  @param _timeout Time after which a party automatically loose a dispute.\n     *  @param _partyB The recipient of the transaction.\n     *  @param _arbitratorExtraData Extra data for the arbitrator.\n     *  @param _metaEvidence Link to meta-evidence JSON.\n     */\n    constructor(Arbitrator _arbitrator, uint _timeout, address _partyB, bytes _arbitratorExtraData, string _metaEvidence) TwoPartyArbitrable(_arbitrator,_timeout,_partyB,_arbitratorExtraData, _metaEvidence) payable public {\n        amount+=msg.value;\n    }\n\n    /** @dev Pay the party B. To be called when the good is delivered or the service rendered.\n     */\n    function pay() public onlyPartyA {\n        partyB.transfer(amount);\n        amount=0;\n    }\n\n    /** @dev Reimburse party A. To be called if the good or service can't be fully provided.\n     *  @param _amountReimbursed Amount to reimburse in wei.\n     */\n    function reimburse(uint _amountReimbursed) public onlyPartyB {\n        require(_amountReimbursed<=amount);\n        partyA.transfer(_amountReimbursed);\n        amount-=_amountReimbursed;\n    }\n\n    /** @dev Execute a ruling of a dispute. It reimburse the fee to the winning party.\n     *  This need to be extended by contract inheriting from it.\n     *  @param _disputeID ID of the dispute in the Arbitrator contract.\n     *  @param _ruling Ruling given by the arbitrator. 1 : Reimburse the partyA. 2 : Pay the partyB.\n     */\n    function executeRuling(uint _disputeID, uint _ruling) internal {\n        super.executeRuling(_disputeID,_ruling);\n        if (_ruling==PARTY_A_WINS)\n            partyA.send(amount);\n        else if (_ruling==PARTY_B_WINS)\n            partyB.send(amount);\n\n        amount=0;\n    }\n\n\n }\n",
  "sourcePath": "kleros-interaction/contracts/standard/arbitration/ArbitrableTransaction.sol",
  "compiler": {
    "name": "solc",
    "version": "0.4.24+commit.e67f0147.Emscripten.clang"
  },
  "schemaVersion": "2.0.1",
  "updatedAt": "2018-08-07T23:47:41.285Z"
}