{
  "contractName": "IuvoCore",
  "abi": [
    {
      "constant": true,
      "inputs": [
        {
          "name": "",
          "type": "uint256"
        }
      ],
      "name": "appointments",
      "outputs": [
        {
          "name": "doctor",
          "type": "address"
        },
        {
          "name": "patient",
          "type": "address"
        },
        {
          "name": "arbitrableAppointment",
          "type": "address"
        },
        {
          "name": "contractIpfsAddr",
          "type": "string"
        }
      ],
      "payable": false,
      "stateMutability": "view",
      "type": "function"
    },
    {
      "constant": true,
      "inputs": [
        {
          "name": "",
          "type": "address"
        }
      ],
      "name": "doctorExists",
      "outputs": [
        {
          "name": "",
          "type": "bool"
        }
      ],
      "payable": false,
      "stateMutability": "view",
      "type": "function"
    },
    {
      "constant": false,
      "inputs": [
        {
          "name": "",
          "type": "address"
        }
      ],
      "name": "upgradeTo",
      "outputs": [],
      "payable": false,
      "stateMutability": "nonpayable",
      "type": "function"
    },
    {
      "constant": true,
      "inputs": [
        {
          "name": "",
          "type": "uint256"
        }
      ],
      "name": "doctorAddresses",
      "outputs": [
        {
          "name": "",
          "type": "address"
        }
      ],
      "payable": false,
      "stateMutability": "view",
      "type": "function"
    },
    {
      "constant": false,
      "inputs": [],
      "name": "unpause",
      "outputs": [],
      "payable": false,
      "stateMutability": "nonpayable",
      "type": "function"
    },
    {
      "constant": true,
      "inputs": [
        {
          "name": "",
          "type": "address"
        },
        {
          "name": "",
          "type": "uint256"
        }
      ],
      "name": "doctorAppointments",
      "outputs": [
        {
          "name": "",
          "type": "uint256"
        }
      ],
      "payable": false,
      "stateMutability": "view",
      "type": "function"
    },
    {
      "constant": true,
      "inputs": [],
      "name": "paused",
      "outputs": [
        {
          "name": "",
          "type": "bool"
        }
      ],
      "payable": false,
      "stateMutability": "view",
      "type": "function"
    },
    {
      "constant": true,
      "inputs": [
        {
          "name": "",
          "type": "address"
        },
        {
          "name": "",
          "type": "uint256"
        }
      ],
      "name": "patientAppointments",
      "outputs": [
        {
          "name": "",
          "type": "uint256"
        }
      ],
      "payable": false,
      "stateMutability": "view",
      "type": "function"
    },
    {
      "constant": true,
      "inputs": [
        {
          "name": "",
          "type": "uint256"
        }
      ],
      "name": "doctors",
      "outputs": [
        {
          "name": "name",
          "type": "string"
        },
        {
          "name": "rating",
          "type": "string"
        },
        {
          "name": "bio",
          "type": "string"
        },
        {
          "name": "profilePicIpfsAddr",
          "type": "string"
        },
        {
          "name": "contractIpfsAddr",
          "type": "string"
        },
        {
          "name": "doctorAddr",
          "type": "address"
        }
      ],
      "payable": false,
      "stateMutability": "view",
      "type": "function"
    },
    {
      "constant": true,
      "inputs": [
        {
          "name": "",
          "type": "address"
        }
      ],
      "name": "doctorPosition",
      "outputs": [
        {
          "name": "",
          "type": "uint256"
        }
      ],
      "payable": false,
      "stateMutability": "view",
      "type": "function"
    },
    {
      "constant": false,
      "inputs": [],
      "name": "initialize",
      "outputs": [],
      "payable": false,
      "stateMutability": "nonpayable",
      "type": "function"
    },
    {
      "constant": false,
      "inputs": [],
      "name": "pause",
      "outputs": [],
      "payable": false,
      "stateMutability": "nonpayable",
      "type": "function"
    },
    {
      "constant": true,
      "inputs": [],
      "name": "owner",
      "outputs": [
        {
          "name": "",
          "type": "address"
        }
      ],
      "payable": false,
      "stateMutability": "view",
      "type": "function"
    },
    {
      "constant": true,
      "inputs": [],
      "name": "ratingOracle",
      "outputs": [
        {
          "name": "",
          "type": "address"
        }
      ],
      "payable": false,
      "stateMutability": "view",
      "type": "function"
    },
    {
      "constant": true,
      "inputs": [
        {
          "name": "",
          "type": "address"
        }
      ],
      "name": "initialized",
      "outputs": [
        {
          "name": "",
          "type": "bool"
        }
      ],
      "payable": false,
      "stateMutability": "view",
      "type": "function"
    },
    {
      "constant": true,
      "inputs": [],
      "name": "target",
      "outputs": [
        {
          "name": "",
          "type": "address"
        }
      ],
      "payable": false,
      "stateMutability": "view",
      "type": "function"
    },
    {
      "constant": false,
      "inputs": [
        {
          "name": "newOwner",
          "type": "address"
        }
      ],
      "name": "transferOwnership",
      "outputs": [],
      "payable": false,
      "stateMutability": "nonpayable",
      "type": "function"
    },
    {
      "anonymous": false,
      "inputs": [
        {
          "indexed": false,
          "name": "_doctor",
          "type": "address"
        },
        {
          "indexed": false,
          "name": "_name",
          "type": "string"
        },
        {
          "indexed": false,
          "name": "_bio",
          "type": "string"
        },
        {
          "indexed": false,
          "name": "_profilePicIpfsAddr",
          "type": "string"
        },
        {
          "indexed": false,
          "name": "_contractIpfsAddr",
          "type": "string"
        }
      ],
      "name": "LogNewDoctorData",
      "type": "event"
    },
    {
      "anonymous": false,
      "inputs": [
        {
          "indexed": false,
          "name": "_doctor",
          "type": "address"
        }
      ],
      "name": "LogDoctorDataDeleted",
      "type": "event"
    },
    {
      "anonymous": false,
      "inputs": [
        {
          "indexed": false,
          "name": "_doctor",
          "type": "address"
        },
        {
          "indexed": false,
          "name": "_rating",
          "type": "string"
        }
      ],
      "name": "LogDoctorRatingUpdated",
      "type": "event"
    },
    {
      "anonymous": false,
      "inputs": [
        {
          "indexed": false,
          "name": "_doctor",
          "type": "address"
        },
        {
          "indexed": false,
          "name": "_patient",
          "type": "address"
        }
      ],
      "name": "LogDoctorHired",
      "type": "event"
    },
    {
      "anonymous": false,
      "inputs": [
        {
          "indexed": false,
          "name": "_ratingOracle",
          "type": "address"
        }
      ],
      "name": "LogRatingOracleSet",
      "type": "event"
    },
    {
      "anonymous": false,
      "inputs": [
        {
          "indexed": true,
          "name": "newTarget",
          "type": "address"
        },
        {
          "indexed": true,
          "name": "oldTarget",
          "type": "address"
        },
        {
          "indexed": true,
          "name": "admin",
          "type": "address"
        }
      ],
      "name": "EventUpgrade",
      "type": "event"
    },
    {
      "anonymous": false,
      "inputs": [
        {
          "indexed": true,
          "name": "target",
          "type": "address"
        }
      ],
      "name": "EventInitialized",
      "type": "event"
    },
    {
      "anonymous": false,
      "inputs": [],
      "name": "Pause",
      "type": "event"
    },
    {
      "anonymous": false,
      "inputs": [],
      "name": "Unpause",
      "type": "event"
    },
    {
      "anonymous": false,
      "inputs": [
        {
          "indexed": true,
          "name": "previousOwner",
          "type": "address"
        },
        {
          "indexed": true,
          "name": "newOwner",
          "type": "address"
        }
      ],
      "name": "OwnershipTransferred",
      "type": "event"
    },
    {
      "constant": false,
      "inputs": [
        {
          "name": "_name",
          "type": "string"
        },
        {
          "name": "_bio",
          "type": "string"
        },
        {
          "name": "_profilePicIpfsAddr",
          "type": "string"
        },
        {
          "name": "_contractIpfsAddr",
          "type": "string"
        }
      ],
      "name": "setDoctor",
      "outputs": [],
      "payable": false,
      "stateMutability": "nonpayable",
      "type": "function"
    },
    {
      "constant": false,
      "inputs": [],
      "name": "deleteDoctor",
      "outputs": [],
      "payable": false,
      "stateMutability": "nonpayable",
      "type": "function"
    },
    {
      "constant": false,
      "inputs": [
        {
          "name": "_doctor",
          "type": "address"
        },
        {
          "name": "_contractIpfsAddr",
          "type": "string"
        },
        {
          "name": "_arbitrator",
          "type": "address"
        },
        {
          "name": "_metaEvidence",
          "type": "string"
        },
        {
          "name": "_timeout",
          "type": "uint256"
        },
        {
          "name": "_arbitratorExtraData",
          "type": "bytes"
        }
      ],
      "name": "hireDoctor",
      "outputs": [],
      "payable": true,
      "stateMutability": "payable",
      "type": "function"
    },
    {
      "constant": false,
      "inputs": [
        {
          "name": "_doctor",
          "type": "address"
        },
        {
          "name": "_rating",
          "type": "string"
        }
      ],
      "name": "setRating",
      "outputs": [],
      "payable": false,
      "stateMutability": "nonpayable",
      "type": "function"
    },
    {
      "constant": false,
      "inputs": [
        {
          "name": "_ratingOracle",
          "type": "address"
        }
      ],
      "name": "setRatingOracle",
      "outputs": [],
      "payable": false,
      "stateMutability": "nonpayable",
      "type": "function"
    },
    {
      "constant": true,
      "inputs": [],
      "name": "doctorsArrayLength",
      "outputs": [
        {
          "name": "",
          "type": "uint256"
        }
      ],
      "payable": false,
      "stateMutability": "view",
      "type": "function"
    },
    {
      "constant": true,
      "inputs": [],
      "name": "appointmentsLength",
      "outputs": [
        {
          "name": "",
          "type": "uint256"
        }
      ],
      "payable": false,
      "stateMutability": "view",
      "type": "function"
    },
    {
      "constant": true,
      "inputs": [
        {
          "name": "_doctor",
          "type": "address"
        }
      ],
      "name": "doctorAppointmentsLength",
      "outputs": [
        {
          "name": "",
          "type": "uint256"
        }
      ],
      "payable": false,
      "stateMutability": "view",
      "type": "function"
    },
    {
      "constant": true,
      "inputs": [
        {
          "name": "_patient",
          "type": "address"
        }
      ],
      "name": "patientAppointmentsLength",
      "outputs": [
        {
          "name": "",
          "type": "uint256"
        }
      ],
      "payable": false,
      "stateMutability": "view",
      "type": "function"
    },
    {
      "constant": true,
      "inputs": [],
      "name": "returnDoctorsArray",
      "outputs": [
        {
          "name": "",
          "type": "address[]"
        }
      ],
      "payable": false,
      "stateMutability": "view",
      "type": "function"
    }
  ],
  "bytecode": "0x608060405260008054600160a860020a03191633179055613414806100256000396000f3006080604052600436106200017a5763ffffffff7c010000000000000000000000000000000000000000000000000000000060003504166312dc901381146200017f5780632841267314620002605780632ad230a914620002965780633659cfe614620002ce5780633ba51e7c14620002f45780633f4ba83a146200032b57806357cd46f514620003435780635c975abb146200036a5780635fc8c3da14620003825780636a85de14146200046f5780636efb1b84146200049657806377cb36ff14620006e95780637bed42cb14620007015780638129fc1c14620007255780638456cb59146200073d5780638da5cb5b14620007555780638ff48be2146200076d578063939e317014620007d7578063ba2d3ee91462000841578063c3610fd21462000865578063cbca47db146200087d578063d4b8399214620008a1578063e0ab1ac914620008b9578063e77486d214620008dd578063f2fde38b14620008f5578063f47e0add1462000919578063f7d0ccae1462000a2f575b600080fd5b3480156200018c57600080fd5b506200019a60043562000a47565b6040518085600160a060020a0316600160a060020a0316815260200184600160a060020a0316600160a060020a0316815260200183600160a060020a0316600160a060020a0316815260200180602001828103825283818151815260200191508051906020019080838360005b838110156200022157818101518382015260200162000207565b50505050905090810190601f1680156200024f5780820380516001836020036101000a031916815260200191505b509550505050505060405180910390f35b3480156200026d57600080fd5b5062000284600160a060020a036004351662000b1d565b60408051918252519081900360200190f35b348015620002a357600080fd5b50620002ba600160a060020a036004351662000b38565b604080519115158252519081900360200190f35b348015620002db57600080fd5b50620002f2600160a060020a036004351662000b4d565b005b3480156200030157600080fd5b506200030f60043562000b4f565b60408051600160a060020a039092168252519081900360200190f35b3480156200033857600080fd5b50620002f262000b78565b3480156200035057600080fd5b5062000284600160a060020a036004351660243562000c01565b3480156200037757600080fd5b50620002ba62000c32565b60408051602060046024803582810135601f8101859004850286018501909652858552620002f2958335600160a060020a031695369560449491939091019190819084018382808284375050604080516020601f818a01358b0180359182018390048302840183018552818452989b600160a060020a038b35169b909a90999401975091955091820193509150819084018382808284375050604080516020601f818a01358b0180359182018390048302840183018552818452989b8a359b909a90999401975091955091820193509150819084018382808284375094975062000c539650505050505050565b3480156200047c57600080fd5b5062000284600160a060020a036004351660243562001034565b348015620004a357600080fd5b50620004b160043562001050565b60405180806020018060200180602001806020018060200187600160a060020a0316600160a060020a0316815260200186810386528c818151815260200191508051906020019080838360005b8381101562000518578181015183820152602001620004fe565b50505050905090810190601f168015620005465780820380516001836020036101000a031916815260200191505b5086810385528b5181528b516020918201918d019080838360005b838110156200057b57818101518382015260200162000561565b50505050905090810190601f168015620005a95780820380516001836020036101000a031916815260200191505b5086810384528a5181528a516020918201918c019080838360005b83811015620005de578181015183820152602001620005c4565b50505050905090810190601f1680156200060c5780820380516001836020036101000a031916815260200191505b5086810383528951815289516020918201918b019080838360005b838110156200064157818101518382015260200162000627565b50505050905090810190601f1680156200066f5780820380516001836020036101000a031916815260200191505b5086810382528851815288516020918201918a019080838360005b83811015620006a45781810151838201526020016200068a565b50505050905090810190601f168015620006d25780820380516001836020036101000a031916815260200191505b509b50505050505050505050505060405180910390f35b348015620006f657600080fd5b50620002f262001375565b3480156200070e57600080fd5b5062000284600160a060020a036004351662001565565b3480156200073257600080fd5b50620002f262001577565b3480156200074a57600080fd5b50620002f2620015f3565b3480156200076257600080fd5b506200030f62001692565b3480156200077a57600080fd5b5060408051602060046024803582810135601f8101859004850286018501909652858552620002f2958335600160a060020a0316953695604494919390910191908190840183828082843750949750620016a19650505050505050565b348015620007e457600080fd5b50620007ef62001932565b60408051602080825283518183015283519192839290830191858101910280838360005b838110156200082d57818101518382015260200162000813565b505050509050019250505060405180910390f35b3480156200084e57600080fd5b5062000284600160a060020a036004351662001997565b3480156200087257600080fd5b506200030f620019b2565b3480156200088a57600080fd5b50620002ba600160a060020a0360043516620019c1565b348015620008ae57600080fd5b506200030f620019d6565b348015620008c657600080fd5b50620002f2600160a060020a0360043516620019e5565b348015620008ea57600080fd5b506200028462001a5e565b3480156200090257600080fd5b50620002f2600160a060020a036004351662001a64565b3480156200092657600080fd5b506040805160206004803580820135601f8101849004840285018401909552848452620002f294369492936024939284019190819084018382808284375050604080516020601f89358b018035918201839004830284018301909452808352979a99988101979196509182019450925082915084018382808284375050604080516020601f89358b018035918201839004830284018301909452808352979a99988101979196509182019450925082915084018382808284375050604080516020601f89358b018035918201839004830284018301909452808352979a99988101979196509182019450925082915084018382808284375094975062001afa9650505050505050565b34801562000a3c57600080fd5b50620002846200209c565b600a80548290811062000a5657fe5b60009182526020918290206004919091020180546001808301546002808501546003860180546040805161010097831615979097026000190190911693909304601f8101899004890286018901909352828552600160a060020a039586169850928516969416949383018282801562000b135780601f1062000ae75761010080835404028352916020019162000b13565b820191906000526020600020905b81548152906001019060200180831162000af557829003601f168201915b5050505050905084565b600160a060020a031660009081526008602052604090205490565b60056020526000908152604090205460ff1681565bfe5b600680548290811062000b5e57fe5b600091825260209091200154600160a060020a0316905081565b600054600160a060020a0316331462000b9057600080fd5b60005474010000000000000000000000000000000000000000900460ff16151562000bba57600080fd5b6000805474ff0000000000000000000000000000000000000000191681556040517f7805862f689e2f13df9f062ff482ad3ad112aca9e0847911ed832e158c525b339190a1565b60086020528160005260406000208181548110151562000c1d57fe5b90600052602060002001600091509150505481565b60005474010000000000000000000000000000000000000000900460ff1681565b60008062000c60620020b5565b60008054819074010000000000000000000000000000000000000000900460ff161562000c8c57600080fd5b600160a060020a038b1660009081526005602052604090205460ff16151562000cb457600080fd5b33945088878c888b62000cc6620020db565b8086600160a060020a0316600160a060020a0316815260200185815260200184600160a060020a0316600160a060020a031681526020018060200180602001838103835285818151815260200191508051906020019080838360005b8381101562000d3c57818101518382015260200162000d22565b50505050905090810190601f16801562000d6a5780820380516001836020036101000a031916815260200191505b50838103825284518152845160209182019186019080838360005b8381101562000d9f57818101518382015260200162000d85565b50505050905090810190601f16801562000dcd5780820380516001836020036101000a031916815260200191505b50975050505050505050604051809103906000f08015801562000df4573d6000803e3d6000fd5b5093506080604051908101604052808c600160a060020a0316815260200186600160a060020a0316815260200185600160a060020a031681526020018b8152509250600a839080600181540180825580915050906001820390600052602060002090600402016000909192909190915060008201518160000160006101000a815481600160a060020a030219169083600160a060020a0316021790555060208201518160010160006101000a815481600160a060020a030219169083600160a060020a0316021790555060408201518160020160006101000a815481600160a060020a030219169083600160a060020a03160217905550606082015181600301908051906020019062000f09929190620020ec565b505050915062000f24600183620020a290919063ffffffff16565b90506009600086600160a060020a0316600160a060020a03168152602001908152602001600020819080600181540180825580915050906001820390600052602060002001600090919290919091505550600860008c600160a060020a0316600160a060020a031681526020019081526020016000208190806001815401808255809150509060018203906000526020600020016000909192909190915055507f0ee1db691242ab3fd607c03c7a15803c89c6a10483791c1380a47447895639298b866040518083600160a060020a0316600160a060020a0316815260200182600160a060020a0316600160a060020a031681526020019250505060405180910390a15050505050505050505050565b60096020528160005260406000208181548110151562000c1d57fe5b60078054829081106200105f57fe5b60009182526020918290206006919091020180546040805160026001841615610100026000190190931692909204601f810185900485028301850190915280825291935091839190830182828015620010fc5780601f10620010d057610100808354040283529160200191620010fc565b820191906000526020600020905b815481529060010190602001808311620010de57829003601f168201915b505050505090806001018054600181600116156101000203166002900480601f0160208091040260200160405190810160405280929190818152602001828054600181600116156101000203166002900480156200119e5780601f1062001172576101008083540402835291602001916200119e565b820191906000526020600020905b8154815290600101906020018083116200118057829003601f168201915b50505060028085018054604080516020601f6000196101006001871615020190941695909504928301859004850281018501909152818152959695945090925090830182828015620012345780601f10620012085761010080835404028352916020019162001234565b820191906000526020600020905b8154815290600101906020018083116200121657829003601f168201915b5050505060038301805460408051602060026001851615610100026000190190941693909304601f8101849004840282018401909252818152949594935090830182828015620012c85780601f106200129c57610100808354040283529160200191620012c8565b820191906000526020600020905b815481529060010190602001808311620012aa57829003601f168201915b5050505060048301805460408051602060026001851615610100026000190190941693909304601f81018490048402820184019092528181529495949350908301828280156200135c5780601f1062001330576101008083540402835291602001916200135c565b820191906000526020600020905b8154815290600101906020018083116200133e57829003601f168201915b50505060059093015491925050600160a060020a031686565b600080548190819074010000000000000000000000000000000000000000900460ff1615620013a357600080fd5b3360009081526005602052604090205460ff1615156200144a57604080517f08c379a000000000000000000000000000000000000000000000000000000000815260206004820152603360248201527f4120646f63746f7220666f7220746869732061646472657373206d757374206560448201527f7869737420746f2062652064656c657465642e00000000000000000000000000606482015290519081900360840190fd5b336000818152600460205260409020546007805492955090935090839081106200147057fe5b6000918252602080832060408051928301908190529184905260069092029091019250620014a191839190620020ec565b50604080516020810191829052600090819052620014c4916002840191620020ec565b50604080516020810191829052600090819052620014e7916003840191620020ec565b506040805160208101918290526000908190526200150a916004840191620020ec565b50600160a060020a038316600081815260056020908152604091829020805460ff19169055815192835290517f228be1a80dcc740f42261d1c4e28c6a8ab882658801bbd006e22a42005933a149281900390910190a1505050565b60046020526000908152604090205481565b600154600160a060020a031660009081526002602052604090205460ff1615156200017a5760018054600160a060020a03908116600090815260026020526040808220805460ff1916851790559254925192909116917f46262b692680f1907961b1c2f80ce936b0bc7d72985aec6c7d3d91dd79b113fd9190a2565b600054600160a060020a031633146200160b57600080fd5b60005474010000000000000000000000000000000000000000900460ff16156200163457600080fd5b6000805474ff00000000000000000000000000000000000000001916740100000000000000000000000000000000000000001781556040517f6985a02210a168e66602d3235cb6db0e70f92b3ba4d376a33c0f3d9434bff6259190a1565b600054600160a060020a031681565b6003546000908190600160a060020a031633146200174657604080517f08c379a000000000000000000000000000000000000000000000000000000000815260206004820152602d60248201527f4f6e6c792074686520726174696e67206f7261636c652063616e2063616c6c2060448201527f746869732066756e6374696f6e00000000000000000000000000000000000000606482015290519081900360840190fd5b60005474010000000000000000000000000000000000000000900460ff16156200176f57600080fd5b600160a060020a03841660009081526005602052604090205460ff1615156200181f57604080517f08c379a000000000000000000000000000000000000000000000000000000000815260206004820152603760248201527f4120646f63746f7220666f72207468697320616464726573732061206d75737460448201527f2065786973742072656365697665206120726174696e67000000000000000000606482015290519081900360840190fd5b600160a060020a0384166000908152600460205260409020546007805491935090839081106200184b57fe5b906000526020600020906006020190508281600101908051906020019062001875929190620020ec565b507fc162a643cfdfde991e9b6664b9f443bd4ecc91ee5a7635f24d6adc7cbe50ff3f84846040518083600160a060020a0316600160a060020a0316815260200180602001828103825283818151815260200191508051906020019080838360005b83811015620018f0578181015183820152602001620018d6565b50505050905090810190601f1680156200191e5780820380516001836020036101000a031916815260200191505b50935050505060405180910390a150505050565b606060068054806020026020016040519081016040528092919081815260200182805480156200198c57602002820191906000526020600020905b8154600160a060020a031681526001909101906020018083116200196d575b505050505090505b90565b600160a060020a031660009081526009602052604090205490565b600354600160a060020a031681565b60026020526000908152604090205460ff1681565b600154600160a060020a031681565b600054600160a060020a03163314620019fd57600080fd5b60038054600160a060020a03831673ffffffffffffffffffffffffffffffffffffffff19909116811790915560408051918252517f0734cf83b760d2d3ddb773fa1fc2c9da14e0280011d99e67fe42414543a644dc9181900360200190a150565b60075490565b600054600160a060020a0316331462001a7c57600080fd5b600160a060020a038116151562001a9257600080fd5b60008054604051600160a060020a03808516939216917f8be0079c531659141344cd1fd0a4f28419497f9722a3daafe3b4186f6b6457e091a36000805473ffffffffffffffffffffffffffffffffffffffff1916600160a060020a0392909216919091179055565b600080600062001b0962002171565b60008054819074010000000000000000000000000000000000000000900460ff161562001b3557600080fd5b3360008181526005602052604090205490965060ff161562001bf257600160a060020a03861660009081526004602052604090205460078054919650908690811062001b7d57fe5b60009182526020918290208c51600690920201955062001ba3918691908d0190620020ec565b50885162001bbb90600286019060208c0190620020ec565b50875162001bd390600386019060208b0190620020ec565b50865162001beb90600486019060208a0190620020ec565b5062001df4565b6040805160c0810182528b815281518083018352600e81527f57616974696e6720726576696577000000000000000000000000000000000000602082810191909152808301919091529181018b9052606081018a905260808101899052600160a060020a03881660a08201526007805460018101808355600092909252825180519397509193879360069092027fa66cc928b5edb82af9bd49922954155ab7b0942694bea4ce44661d9a8736c688019262001cb49284929190910190620020ec565b50602082810151805162001ccf9260018501920190620020ec565b506040820151805162001ced916002840191602090910190620020ec565b506060820151805162001d0b916003840191602090910190620020ec565b506080820151805162001d29916004840191602090910190620020ec565b5060a091909101516005909101805473ffffffffffffffffffffffffffffffffffffffff1916600160a060020a039092169190911790555060075462001d71906001620020a2565b600160a060020a03871660008181526004602090815260408083209490945560059052918220805460ff191660019081179091556006805491820181559092527ff652222313e28459528d920b65115c16c04f3efc82aaedc97be59f3f377c0d3f909101805473ffffffffffffffffffffffffffffffffffffffff191690911790555b600160a060020a03861660009081526004602052604090205460078054919350908390811062001e2057fe5b906000526020600020906006020190507fa2f6a265e1c962ca3094f00477b7d87595f4cda904c79d981ab9d7bc2cc111a286826000018360020184600301856004016040518086600160a060020a0316600160a060020a031681526020018060200180602001806020018060200185810385528981815460018160011615610100020316600290048152602001915080546001816001161561010002031660029004801562001f135780601f1062001ee75761010080835404028352916020019162001f13565b820191906000526020600020905b81548152906001019060200180831162001ef557829003601f168201915b505085810384528854600260001961010060018416150201909116048082526020909101908990801562001f8b5780601f1062001f5f5761010080835404028352916020019162001f8b565b820191906000526020600020905b81548152906001019060200180831162001f6d57829003601f168201915b5050858103835287546002600019610100600184161502019091160480825260209091019088908015620020035780601f1062001fd75761010080835404028352916020019162002003565b820191906000526020600020905b81548152906001019060200180831162001fe557829003601f168201915b50508581038252865460026000196101006001841615020190911604808252602090910190879080156200207b5780601f106200204f576101008083540402835291602001916200207b565b820191906000526020600020905b8154815290600101906020018083116200205d57829003601f168201915b5050995050505050505050505060405180910390a150505050505050505050565b600a5490565b600082821115620020af57fe5b50900390565b604080516080810182526000808252602082018190529181019190915260608082015290565b60405161121a80620021cf83390190565b828054600181600116156101000203166002900490600052602060002090601f016020900481019282601f106200212f57805160ff19168380011785556200215f565b828001600101855582156200215f579182015b828111156200215f57825182559160200191906001019062002142565b506200216d929150620021b1565b5090565b60c06040519081016040528060608152602001606081526020016060815260200160608152602001606081526020016000600160a060020a031681525090565b6200199491905b808211156200216d5760008155600101620021b8560060806040526040516200121a3803806200121a8339810160409081528151602080840151928401516060850151608086015160008054600160a060020a031916600160a060020a0387161790559086018051949692949093919092019186918691869186918691869184916200007b9160019184019062000161565b50505060028490556003805433600160a060020a03199182161790915560048054909116600160a060020a03851617905560408051602080825283518183015283516000937f61606860eb6c87306811e2695215385101daab53bd6ab4e9f9049aead9363c7d938693909283928301918501908083838a5b838110156200010d578181015183820152602001620000f3565b50505050905090810190601f1680156200013b5780820380516001836020036101000a031916815260200191505b509250505060405180910390a25050600a80543401905550620002069650505050505050565b828054600181600116156101000203166002900490600052602060002090601f016020900481019282601f10620001a457805160ff1916838001178555620001d4565b82800160010185558215620001d4579182015b82811115620001d4578251825591602001919060010190620001b7565b50620001e2929150620001e6565b5090565b6200020391905b80821115620001e25760008155600101620001ed565b90565b61100480620002166000396000f3006080604052600436106101115763ffffffff7c0100000000000000000000000000000000000000000000000000000000600035041663069fae2a81146101165780630c7ac7b61461016457806310e1d8ca146101ee57806319e2641e1461021f5780631b9265b814610234578063200d2ed2146102495780632904011314610282578063311a6c56146102975780634a44c2e4146102b25780634b40c974146102ca578063512491f1146102f15780636cc6cde11461030657806370dea79a1461031b578063853c80ce146103305780638f71a26514610345578063a01096311461035a578063aa8c217c14610362578063b0a1e2b414610377578063b1bcce3a1461038c578063bac91e2e14610394575b600080fd5b6040805160206004803580820135601f81018490048402850184019095528484526101629436949293602493928401919081908401838280828437509497506103ed9650505050505050565b005b34801561017057600080fd5b5061017961050b565b6040805160208082528351818301528351919283929083019185019080838360005b838110156101b357818101518382015260200161019b565b50505050905090810190601f1680156101e05780820380516001836020036101000a031916815260200191505b509250505060405180910390f35b3480156101fa57600080fd5b50610203610598565b60408051600160a060020a039092168252519081900360200190f35b34801561022b57600080fd5b506101626105a7565b34801561024057600080fd5b506101626105fe565b34801561025557600080fd5b5061025e610659565b6040518082600481111561026e57fe5b60ff16815260200191505060405180910390f35b34801561028e57600080fd5b50610203610662565b3480156102a357600080fd5b50610162600435602435610671565b3480156102be57600080fd5b506101626004356106cd565b3480156102d657600080fd5b506102df61073a565b60408051918252519081900360200190f35b3480156102fd57600080fd5b506102df610740565b34801561031257600080fd5b50610203610746565b34801561032757600080fd5b506102df610755565b34801561033c57600080fd5b5061016261075b565b34801561035157600080fd5b506102df6107b0565b6101626107b6565b34801561036e57600080fd5b506102df610977565b34801561038357600080fd5b506102df61097d565b610162610983565b3480156103a057600080fd5b506040805160206004803580820135601f8101849004840285018401909552848452610162943694929360249392840191908190840183828082843750949750610b249650505050505050565b600354600160a060020a03163314806104105750600454600160a060020a031633145b151561041b57600080fd5b60008054600854604080517f49912f880000000000000000000000000000000000000000000000000000000081526004810183815260248201928352865160448301528651600160a060020a03909516956349912f88953495948994909260649091019160208601918190849084905b838110156104a357818101518382015260200161048b565b50505050905090810190601f1680156104d05780820380516001836020036101000a031916815260200191505b5093505050506000604051808303818588803b1580156104ef57600080fd5b505af1158015610503573d6000803e3d6000fd5b505050505050565b60018054604080516020600284861615610100026000190190941693909304601f810184900484028201840190925281815292918301828280156105905780601f1061056557610100808354040283529160200191610590565b820191906000526020600020905b81548152906001019060200180831161057357829003601f168201915b505050505081565b600354600160a060020a031681565b600354600160a060020a031633146105be57600080fd5b600260095460ff1660048111156105d157fe5b146105db57600080fd5b600254600754014210156105ee57600080fd5b6008546105fc906001610c47565b565b600354600160a060020a0316331461061557600080fd5b600454600a54604051600160a060020a039092169181156108fc0291906000818181858888f19350505050158015610651573d6000803e3d6000fd5b506000600a55565b60095460ff1681565b600454600160a060020a031681565b600054600160a060020a0316331461068857600080fd5b604080518281529051839133917f394027a5fa6e098a1191094d1719d6929b9abc535fcc0c8f448d6a4e756222769181900360200190a36106c98282610c47565b5050565b600454600160a060020a031633146106e457600080fd5b600a548111156106f357600080fd5b600354604051600160a060020a039091169082156108fc029083906000818181858888f1935050505015801561072d573d6000803e3d6000fd5b50600a8054919091039055565b60055481565b60065481565b600054600160a060020a031681565b60025481565b600454600160a060020a0316331461077257600080fd5b600160095460ff16600481111561078557fe5b1461078f57600080fd5b600254600754014210156107a257600080fd5b6008546105fc906002610c47565b60075481565b600354600090600160a060020a031633146107d057600080fd5b6000546040517ff7434ea90000000000000000000000000000000000000000000000000000000081526020600482019081526001805460026000198284161561010002019091160460248401819052600160a060020a039094169363f7434ea99391929182916044909101908490801561088b5780601f106108605761010080835404028352916020019161088b565b820191906000526020600020905b81548152906001019060200180831161086e57829003601f168201915b505092505050602060405180830381600087803b1580156108ab57600080fd5b505af11580156108bf573d6000803e3d6000fd5b505050506040513d60208110156108d557600080fd5b5051600580543401908190559091508111156108f057600080fd5b600360095460ff16600481111561090357fe5b1061090d57600080fd5b4260075560065481111561096b576009805460ff191660021790556040517fba8db766b5582c21593909b57af48297714ea2c508bfff6c537ce36bb853e5689060019080825b60ff16815260200191505060405180910390a1610974565b61097481610cc9565b50565b600a5481565b60085481565b600454600090600160a060020a0316331461099d57600080fd5b6000546040517ff7434ea90000000000000000000000000000000000000000000000000000000081526020600482019081526001805460026000198284161561010002019091160460248401819052600160a060020a039094169363f7434ea993919291829160449091019084908015610a585780601f10610a2d57610100808354040283529160200191610a58565b820191906000526020600020905b815481529060010190602001808311610a3b57829003601f168201915b505092505050602060405180830381600087803b158015610a7857600080fd5b505af1158015610a8c573d6000803e3d6000fd5b505050506040513d6020811015610aa257600080fd5b505160068054340190819055909150811115610abd57600080fd5b600360095460ff166004811115610ad057fe5b10610ada57600080fd5b4260075560055481111561096b576009805460ff191660011790556040517fba8db766b5582c21593909b57af48297714ea2c508bfff6c537ce36bb853e568906000908082610953565b600354600160a060020a0316331480610b475750600454600160a060020a031633145b1515610b5257600080fd5b600360095460ff166004811115610b6557fe5b1015610b7057600080fd5b6008546000809054906101000a9004600160a060020a0316600160a060020a03167fdccf2f8b2cc26eafcd61905cba744cff4b81d14740725f6376390dc6298a6a3c33846040518083600160a060020a0316600160a060020a0316815260200180602001828103825283818151815260200191508051906020019080838360005b83811015610c09578181015183820152602001610bf1565b50505050905090810190601f168015610c365780820380516001836020036101000a031916815260200191505b50935050505060405180910390a350565b610c518282610f10565b6001811415610c8b57600354600a54604051600160a060020a039092169181156108fc0291906000818181858888f1935050505050610cc0565b6002811415610cc057600454600a54604051600160a060020a039092169181156108fc0291906000818181858888f150505050505b50506000600a55565b6009805460ff19166003179055600054604080517fc13517e100000000000000000000000000000000000000000000000000000000815260026004820181815260248301938452600180546101008183161502600019011683900460448501819052600160a060020a039096169563c13517e1958895929392909160649091019084908015610d995780601f10610d6e57610100808354040283529160200191610d99565b820191906000526020600020905b815481529060010190602001808311610d7c57829003601f168201915b505093505050506020604051808303818588803b158015610db957600080fd5b505af1158015610dcd573d6000803e3d6000fd5b50505050506040513d6020811015610de457600080fd5b5051600881905560008054604080518082018252601981527f506172747920412077696e733b506172747920422077696e7300000000000000602082810191825283518181528351918101919091528251600160a060020a03909516957f775071bee3f2d409883bcb9dfcef6befa9343668ab341f76fcc5817b52a126119593949193849392840192918190849084905b83811015610e8d578181015183820152602001610e75565b50505050905090810190601f168015610eba5780820380516001836020036101000a031916815260200191505b509250505060405180910390a3600854600080546040805192835251600160a060020a03909116917f21da1f02e8071a7680b73ad6e5bc1aee1f8f0620a0a08a0333be1f0ca9dd7fec919081900360200190a350565b6008548214610f1e57600080fd5b6002811115610f2c57600080fd5b6001811415610f7c57600354600654600554600160a060020a03909216916108fc9110610f5b57600654610f5f565b6005545b6040518115909202916000818181858888f1935050505050610fc7565b6002811415610fc757600454600654600554600160a060020a03909216916108fc9110610fab57600654610faf565b6005545b6040518115909202916000818181858888f150505050505b50506009805460ff191660041790555600a165627a7a72305820193bb7eb27f70c147199f9c8fd542e7dd99477619cc2aedb1c778bd0421d48160029a165627a7a72305820633a44baf48c3463217d08dc21ca2a823432f590bbed7ebec5e249f8c9267f180029",
  "source": "pragma solidity 0.4.24;\n\nimport \"zeppelin/contracts/math/SafeMath.sol\";\nimport \"./PausableUpgradeable.sol\";\nimport \"kleros-interaction/contracts/standard/arbitration/ArbitrableTransaction.sol\";\nimport \"kleros-interaction/contracts/standard/arbitration/Arbitrator.sol\";\n\n/**\n *  @title IuvoCore\n *  @author Matheus Alencar - <mtsalenc@gmail.com>\n *  Upgradable IuvoCore contract. This is a meeting point between patients and doctors.\n *  This contract was built for educational purposes.\n */\ncontract IuvoCore is PausableUpgradeable{\n    using SafeMath for uint256;\n\n    address public ratingOracle;\n\n    mapping(address => uint256) public doctorPosition;\n    mapping(address => bool) public doctorExists;\n    address[] public doctorAddresses;\n    Doctor[] public doctors;\n    \n    mapping(address => uint[]) public doctorAppointments;\n    mapping(address => uint[]) public patientAppointments;\n    Appointment[] public appointments;\n\n    struct Doctor {\n        string name;\n        string rating;\n        string bio;\n        string profilePicIpfsAddr;\n        string contractIpfsAddr;\n        address doctorAddr;\n    }\n\n    struct Appointment {\n        address doctor;\n        address patient;\n        address arbitrableAppointment;\n        string contractIpfsAddr;\n    }\n\n    /** @dev Indicate that new `_doctor` data has been set to the contract.\n     *  @param _doctor The doctor's address.\n     *  @param _name The doctor's name.\n     *  @param _bio The doctors bio.\n     *  @param _profilePicIpfsAddr The doctor's profile picture ipfs address/hash\n     *  @param _contractIpfsAddr The contract's ipfs address/hash\n     */\n    event LogNewDoctorData(\n        address _doctor,\n        string _name,  \n        string _bio,\n        string _profilePicIpfsAddr,\n        string _contractIpfsAddr\n    );\n\n    /** @dev Indicate `_doctor`'s data has been removed.\n     *  @param _doctor The doctor's address.     \n     */\n    event LogDoctorDataDeleted(address _doctor);\n\n    /** @dev Indicate that the `_doctor`'s rating has been updated.\n     *  @param _doctor The doctor's address.\n     *  @param _rating The doctor's new rating.\n     */\n    event LogDoctorRatingUpdated(address _doctor,string _rating\n    );\n\n    /** @dev Indicate that `_doctor` has been hired by `_patient`\n     *  @param _doctor The doctor's address.\n     *  @param _patient The patient that hired the doctor.\n     */\n    event LogDoctorHired(address _doctor,address _patient);\n\n    /** @dev Indicate that `_ratingOracle` has been set as the rating oracle.\n     *  @param _ratingOracle The doctor's address.     \n     */\n    event LogRatingOracleSet(address _ratingOracle);\n\n    modifier onlyRatingOracle() {\n        require(\n            msg.sender==ratingOracle,\n            \"Only the rating oracle can call this function\"\n        ); \n        _;  \n    }\n\n    /** @dev Set new Doctor data. Can be used to either update data \n     *  or register a new doctor for `msg.sender`'s address.\n     *  @param _name The name of the doctor.\n     *  @param _bio The bio of the doctor.\n     *  @param _profilePicIpfsAddr The doctor's profile picture ipfs address.\n     *  @param _contractIpfsAddr The doctor's contract ipfs address.\n     */\n    function setDoctor(\n        string _name,\n        string _bio, \n        string _profilePicIpfsAddr,\n        string _contractIpfsAddr\n    ) \n        public\n        whenNotPaused\n    {\n        address doctorAddr = msg.sender;\n        if(doctorExists[doctorAddr]){\n            // update data\n            uint256 doctorPositionInArray = doctorPosition[doctorAddr];\n\n            Doctor storage docToUpdate = doctors[doctorPositionInArray];\n            docToUpdate.name = _name;\n            docToUpdate.bio = _bio;\n            docToUpdate.profilePicIpfsAddr = _profilePicIpfsAddr;\n            docToUpdate.contractIpfsAddr = _contractIpfsAddr;\n        } else {\n            // new doctor\n            Doctor memory newDoc = Doctor(\n                _name,\n                \"Waiting review\", \n                _bio, \n                _profilePicIpfsAddr,\n                _contractIpfsAddr,\n                doctorAddr\n            );\n            doctors.push(newDoc);\n            doctorPosition[doctorAddr] = doctors.length.sub(1);\n            doctorExists[doctorAddr] = true;\n            doctorAddresses.push(doctorAddr);\n        }\n\n        uint256 doctorPos = doctorPosition[doctorAddr];\n        Doctor storage updatedDoctor = doctors[doctorPos];\n\n        emit LogNewDoctorData(\n            doctorAddr,\n            updatedDoctor.name,\n            updatedDoctor.bio,\n            updatedDoctor.profilePicIpfsAddr,\n            updatedDoctor.contractIpfsAddr\n        );\n    }\n\n    /** @notice This clears a doctors information and marks it as deleted. \n     *  However, we don't remove it from the array as appointments point to \n     *  it to fetch information.\n     */\n    function deleteDoctor() public whenNotPaused {\n        require(\n            doctorExists[msg.sender],\n            \"A doctor for this address must exist to be deleted.\"\n        );\n        address doctorAddr = msg.sender;\n        uint256 doctorPositionInArray = doctorPosition[doctorAddr];\n        \n        Doctor storage docToUpdate = doctors[doctorPositionInArray];\n        docToUpdate.name = \"\";\n        docToUpdate.bio = \"\";\n        docToUpdate.profilePicIpfsAddr = \"\";\n        docToUpdate.contractIpfsAddr = \"\";\n        \n        doctorExists[doctorAddr] = false;\n\n        emit LogDoctorDataDeleted(doctorAddr);\n    }\n\n    /** @dev Hires a doctor and deploys a kleros arbitrable transaction contract.\n     *  @param _doctor The address of the doctor being hired.\n     *  @param _contractIpfsAddr The ipfs address/hash of the contract for this service.\n     *  @param _arbitrator The arbitrator of the contract.\n     *  @param _metaEvidence Link to meta-evidence JSON.\n     *  @param _timeout  Time after which a party automatically loose a dispute.\n     *  @param _arbitratorExtraData Extra data for the arbitrator.\n     */\n    function hireDoctor(\n        address _doctor,\n        string _contractIpfsAddr,\n        address _arbitrator,\n        string _metaEvidence,\n        uint _timeout,\n        bytes _arbitratorExtraData\n    ) \n        public\n        payable\n        whenNotPaused\n    {\n        require(doctorExists[_doctor]);\n        address _patient = msg.sender;\n        address arbitrableAppointment = new ArbitrableTransaction(\n            Arbitrator(_arbitrator),\n            _timeout,\n            _doctor,\n            _arbitratorExtraData,\n            _metaEvidence\n        );\n\n        Appointment memory appointment = Appointment(\n            _doctor,\n            _patient,\n            arbitrableAppointment,\n            _contractIpfsAddr\n        );\n\n        uint256 length = appointments.push(appointment);\n        uint256 appointmentPos = length.sub(1);\n\n        patientAppointments[_patient].push(appointmentPos);\n        doctorAppointments[_doctor].push(appointmentPos);\n\n        emit LogDoctorHired(_doctor,_patient);\n    }\n\n    /** @dev Sets a doctor's rating. Only callable by the rating oracle.\n     *  @param _doctor The address of the doctor being rated.\n     *  @param _rating The doctor's rating.\n     */\n    function setRating(address _doctor, string _rating) public onlyRatingOracle whenNotPaused{\n        require(\n            doctorExists[_doctor],\n            \"A doctor for this address a must exist receive a rating\"\n        );\n\n        uint256 doctorPositionInArray = doctorPosition[_doctor];\n        Doctor storage docToUpdate = doctors[doctorPositionInArray];        \n        docToUpdate.rating = _rating;\n\n        emit LogDoctorRatingUpdated(_doctor,_rating);\n    }\n\n    /** @dev Sets the rating oracle.\n     *  @param _ratingOracle The address that will be allowed to set a doctor's rating.\n     */\n    function setRatingOracle(address _ratingOracle) public onlyOwner{\n        ratingOracle = _ratingOracle;\n        emit LogRatingOracleSet(_ratingOracle);\n    }\n\n    /** @return The number of registered doctors.\n     */\n    function doctorsArrayLength() public view returns (uint256) {\n        return doctors.length;\n    }\n\n    /** @return The number registered appointments.\n     */\n    function appointmentsLength() public view returns (uint256) {\n        return appointments.length;\n    }\n\n    /** @return The number appointments associated with a `_doctor`.\n     *  @param _doctor The doctor being queried.\n     */\n    function doctorAppointmentsLength(address _doctor) public view returns (uint256) {\n        return doctorAppointments[_doctor].length;\n    }\n\n    /** @return The number appointments associated with a `_patient`.\n     *  @param _patient The patient being queried.\n     */\n    function patientAppointmentsLength(address _patient) public view returns (uint256) {\n        return patientAppointments[_patient].length;\n    }\n\n    /** @return The number appointments associated with a `_doctor`.\n     */\n    function returnDoctorsArray() public view returns (address[]) {\n        return doctorAddresses;\n    }\n}",
  "sourcePath": "/home/ubuntu/workspace/iuvo/contracts/IuvoCore.sol",
  "compiler": {
    "name": "solc",
    "version": "0.4.24+commit.e67f0147.Emscripten.clang"
  },
  "schemaVersion": "2.0.1",
  "updatedAt": "2018-08-10T13:36:23.780Z"
}