{
  "contractName": "PausableProxy",
  "abi": [
    {
      "constant": false,
      "inputs": [],
      "name": "unpause",
      "outputs": [],
      "payable": false,
      "stateMutability": "nonpayable",
      "type": "function"
    },
    {
      "constant": true,
      "inputs": [],
      "name": "paused",
      "outputs": [
        {
          "name": "",
          "type": "bool"
        }
      ],
      "payable": false,
      "stateMutability": "view",
      "type": "function"
    },
    {
      "constant": false,
      "inputs": [],
      "name": "pause",
      "outputs": [],
      "payable": false,
      "stateMutability": "nonpayable",
      "type": "function"
    },
    {
      "constant": true,
      "inputs": [],
      "name": "owner",
      "outputs": [
        {
          "name": "",
          "type": "address"
        }
      ],
      "payable": false,
      "stateMutability": "view",
      "type": "function"
    },
    {
      "constant": true,
      "inputs": [
        {
          "name": "",
          "type": "address"
        }
      ],
      "name": "initialized",
      "outputs": [
        {
          "name": "",
          "type": "bool"
        }
      ],
      "payable": false,
      "stateMutability": "view",
      "type": "function"
    },
    {
      "constant": true,
      "inputs": [],
      "name": "target",
      "outputs": [
        {
          "name": "",
          "type": "address"
        }
      ],
      "payable": false,
      "stateMutability": "view",
      "type": "function"
    },
    {
      "constant": false,
      "inputs": [
        {
          "name": "newOwner",
          "type": "address"
        }
      ],
      "name": "transferOwnership",
      "outputs": [],
      "payable": false,
      "stateMutability": "nonpayable",
      "type": "function"
    },
    {
      "inputs": [
        {
          "name": "_target",
          "type": "address"
        }
      ],
      "payable": false,
      "stateMutability": "nonpayable",
      "type": "constructor"
    },
    {
      "payable": true,
      "stateMutability": "payable",
      "type": "fallback"
    },
    {
      "anonymous": false,
      "inputs": [
        {
          "indexed": true,
          "name": "newTarget",
          "type": "address"
        },
        {
          "indexed": true,
          "name": "oldTarget",
          "type": "address"
        },
        {
          "indexed": true,
          "name": "admin",
          "type": "address"
        }
      ],
      "name": "EventUpgrade",
      "type": "event"
    },
    {
      "anonymous": false,
      "inputs": [
        {
          "indexed": true,
          "name": "target",
          "type": "address"
        }
      ],
      "name": "EventInitialized",
      "type": "event"
    },
    {
      "anonymous": false,
      "inputs": [],
      "name": "Pause",
      "type": "event"
    },
    {
      "anonymous": false,
      "inputs": [],
      "name": "Unpause",
      "type": "event"
    },
    {
      "anonymous": false,
      "inputs": [
        {
          "indexed": true,
          "name": "previousOwner",
          "type": "address"
        },
        {
          "indexed": true,
          "name": "newOwner",
          "type": "address"
        }
      ],
      "name": "OwnershipTransferred",
      "type": "event"
    },
    {
      "constant": false,
      "inputs": [
        {
          "name": "_target",
          "type": "address"
        }
      ],
      "name": "upgradeTo",
      "outputs": [],
      "payable": false,
      "stateMutability": "nonpayable",
      "type": "function"
    },
    {
      "constant": false,
      "inputs": [
        {
          "name": "_target",
          "type": "address"
        },
        {
          "name": "_data",
          "type": "bytes"
        }
      ],
      "name": "upgradeTo",
      "outputs": [],
      "payable": false,
      "stateMutability": "nonpayable",
      "type": "function"
    }
  ],
  "bytecode": "0x60806040526000805460a060020a60ff021916905534801561002057600080fd5b5060405160208061076e833981016040525160008054600160a060020a031916331790556100568164010000000061005c810204565b50610109565b60008054600160a060020a0316331461007457600080fd5b60005474010000000000000000000000000000000000000000900460ff161561009c57600080fd5b600154600160a060020a03838116911614156100b457fe5b5060018054600160a060020a03838116600160a060020a03198316811790935560405191169133918391907fe79b6a8d68293faecf550170958caa9dcab36cab525137e61050eefa170dd93a90600090a45050565b610656806101186000396000f3006080604052600436106100985763ffffffff7c01000000000000000000000000000000000000000000000000000000006000350416633659cfe6811461012f5780633f4ba83a146101525780635c975abb146101675780636fbc15e9146101905780638456cb59146101f75780638da5cb5b1461020c578063cbca47db1461023d578063d4b839921461025e578063f2fde38b14610273575b600080546060919074010000000000000000000000000000000000000000900460ff16156100c557600080fd5b6000368080601f01602080910402602001604051908101604052809392919081815260200183838082843750506001548551959750600160a060020a03169550600094859450925050602086019050845af43d604051816000823e82801561012b578282f35b8282fd5b34801561013b57600080fd5b50610150600160a060020a0360043516610294565b005b34801561015e57600080fd5b5061015061034e565b34801561017357600080fd5b5061017c6103d5565b604080519115158252519081900360200190f35b34801561019c57600080fd5b5060408051602060046024803582810135601f8101859004850286018501909652858552610150958335600160a060020a03169536956044949193909101919081908401838280828437509497506103f69650505050505050565b34801561020357600080fd5b506101506104c6565b34801561021857600080fd5b50610221610563565b60408051600160a060020a039092168252519081900360200190f35b34801561024957600080fd5b5061017c600160a060020a0360043516610572565b34801561026a57600080fd5b50610221610587565b34801561027f57600080fd5b50610150600160a060020a0360043516610596565b60008054600160a060020a031633146102ac57600080fd5b60005474010000000000000000000000000000000000000000900460ff16156102d457600080fd5b600154600160a060020a03838116911614156102ec57fe5b5060018054600160a060020a0383811673ffffffffffffffffffffffffffffffffffffffff198316811790935560405191169133918391907fe79b6a8d68293faecf550170958caa9dcab36cab525137e61050eefa170dd93a90600090a45050565b600054600160a060020a0316331461036557600080fd5b60005474010000000000000000000000000000000000000000900460ff16151561038e57600080fd5b6000805474ff0000000000000000000000000000000000000000191681556040517f7805862f689e2f13df9f062ff482ad3ad112aca9e0847911ed832e158c525b339190a1565b60005474010000000000000000000000000000000000000000900460ff1681565b600054600160a060020a0316331461040d57600080fd5b60005474010000000000000000000000000000000000000000900460ff161561043557600080fd5b61043e82610294565b6001546040518251600160a060020a03909216918391908190602084019080838360005b8381101561047a578181015183820152602001610462565b50505050905090810190601f1680156104a75780820380516001836020036101000a031916815260200191505b50915050600060405180830381855af491505015156104c257fe5b5050565b600054600160a060020a031633146104dd57600080fd5b60005474010000000000000000000000000000000000000000900460ff161561050557600080fd5b6000805474ff00000000000000000000000000000000000000001916740100000000000000000000000000000000000000001781556040517f6985a02210a168e66602d3235cb6db0e70f92b3ba4d376a33c0f3d9434bff6259190a1565b600054600160a060020a031681565b60026020526000908152604090205460ff1681565b600154600160a060020a031681565b600054600160a060020a031633146105ad57600080fd5b600160a060020a03811615156105c257600080fd5b60008054604051600160a060020a03808516939216917f8be0079c531659141344cd1fd0a4f28419497f9722a3daafe3b4186f6b6457e091a36000805473ffffffffffffffffffffffffffffffffffffffff1916600160a060020a03929092169190911790555600a165627a7a72305820c8bcffcbdc3af9e76796147df9df95489d953cb7b3cb453b446b0a1c63db3a8a0029",
  "source": "pragma solidity 0.4.24;\n\nimport \"./PausableProxied.sol\";\nimport \"./PausableUpgradeable.sol\";\n\n\n/**\n *  @title IuvoCore\n *  @author Jack Tanner. Made pausable by Matheus Alencar.\n  * @notice Original repo is here: https://github.com/jackandtheblockstalk/upgradeable-proxy\n */\ncontract PausableProxy is PausableProxied {\n\n    /*\n     * @notice Constructor sets the target and emmits an event with the first target\n     * @param _target - The target Upgradeable contracts address\n     */\n    constructor(address _target) public {\n        upgradeTo(_target);\n    }\n\n    /*\n     * @notice Upgrades the contract to a different target that has a changed logic. Can only be called by owner\n     * @dev See https://github.com/jackandtheblockstalk/upgradeable-proxy for what can and cannot be done in Upgradeable\n     * contracts\n     * @param _target - The target Upgradeable contracts address\n     */\n    function upgradeTo(address _target) public onlyOwner whenNotPaused {\n        assert(target != _target);\n\n        address oldTarget = target;\n        target = _target;\n\n        emit EventUpgrade(_target, oldTarget, msg.sender);\n    }\n\n    /*\n     * @notice Performs an upgrade and then executes a transaction. Intended use to upgrade and initialize atomically\n     */\n    function upgradeTo(address _target, bytes _data) public onlyOwner whenNotPaused {\n        upgradeTo(_target);\n        assert(target.delegatecall(_data));\n    }\n\n    /*\n     * @notice Fallback function that will execute code from the target contract to process a function call.\n     * @dev Will use the delegatecall opcode to retain the current state of the Proxy contract and use the logic\n     * from the target contract to process it.\n     */\n    function () payable public whenNotPaused {\n        bytes memory data = msg.data;\n        address impl = target;\n\n        assembly {\n            let result := delegatecall(gas, impl, add(data, 0x20), mload(data), 0, 0)\n            let size := returndatasize\n\n            let ptr := mload(0x40)\n            returndatacopy(ptr, 0, size)\n\n            switch result\n            case 0 { revert(ptr, size) }\n            default { return(ptr, size) }\n        }\n    }\n}",
  "sourcePath": "/home/rigel/Documents/iuvo/contracts/PausableProxy.sol",
  "compiler": {
    "name": "solc",
    "version": "0.4.24+commit.e67f0147.Emscripten.clang"
  },
  "schemaVersion": "2.0.1",
  "updatedAt": "2018-08-08T22:45:23.098Z"
}