{
  "contractName": "PausableProxy",
  "abi": [
    {
      "constant": false,
      "inputs": [],
      "name": "unpause",
      "outputs": [],
      "payable": false,
      "stateMutability": "nonpayable",
      "type": "function"
    },
    {
      "constant": true,
      "inputs": [],
      "name": "paused",
      "outputs": [
        {
          "name": "",
          "type": "bool"
        }
      ],
      "payable": false,
      "stateMutability": "view",
      "type": "function"
    },
    {
      "constant": false,
      "inputs": [],
      "name": "renounceOwnership",
      "outputs": [],
      "payable": false,
      "stateMutability": "nonpayable",
      "type": "function"
    },
    {
      "constant": false,
      "inputs": [],
      "name": "pause",
      "outputs": [],
      "payable": false,
      "stateMutability": "nonpayable",
      "type": "function"
    },
    {
      "constant": true,
      "inputs": [],
      "name": "owner",
      "outputs": [
        {
          "name": "",
          "type": "address"
        }
      ],
      "payable": false,
      "stateMutability": "view",
      "type": "function"
    },
    {
      "constant": true,
      "inputs": [
        {
          "name": "",
          "type": "address"
        }
      ],
      "name": "initialized",
      "outputs": [
        {
          "name": "",
          "type": "bool"
        }
      ],
      "payable": false,
      "stateMutability": "view",
      "type": "function"
    },
    {
      "constant": true,
      "inputs": [],
      "name": "target",
      "outputs": [
        {
          "name": "",
          "type": "address"
        }
      ],
      "payable": false,
      "stateMutability": "view",
      "type": "function"
    },
    {
      "constant": false,
      "inputs": [
        {
          "name": "_newOwner",
          "type": "address"
        }
      ],
      "name": "transferOwnership",
      "outputs": [],
      "payable": false,
      "stateMutability": "nonpayable",
      "type": "function"
    },
    {
      "inputs": [
        {
          "name": "_target",
          "type": "address"
        }
      ],
      "payable": false,
      "stateMutability": "nonpayable",
      "type": "constructor"
    },
    {
      "payable": true,
      "stateMutability": "payable",
      "type": "fallback"
    },
    {
      "anonymous": false,
      "inputs": [
        {
          "indexed": true,
          "name": "newTarget",
          "type": "address"
        },
        {
          "indexed": true,
          "name": "oldTarget",
          "type": "address"
        },
        {
          "indexed": true,
          "name": "admin",
          "type": "address"
        }
      ],
      "name": "EventUpgrade",
      "type": "event"
    },
    {
      "anonymous": false,
      "inputs": [
        {
          "indexed": true,
          "name": "target",
          "type": "address"
        }
      ],
      "name": "EventInitialized",
      "type": "event"
    },
    {
      "anonymous": false,
      "inputs": [],
      "name": "Pause",
      "type": "event"
    },
    {
      "anonymous": false,
      "inputs": [],
      "name": "Unpause",
      "type": "event"
    },
    {
      "anonymous": false,
      "inputs": [
        {
          "indexed": true,
          "name": "previousOwner",
          "type": "address"
        }
      ],
      "name": "OwnershipRenounced",
      "type": "event"
    },
    {
      "anonymous": false,
      "inputs": [
        {
          "indexed": true,
          "name": "previousOwner",
          "type": "address"
        },
        {
          "indexed": true,
          "name": "newOwner",
          "type": "address"
        }
      ],
      "name": "OwnershipTransferred",
      "type": "event"
    },
    {
      "constant": false,
      "inputs": [
        {
          "name": "_target",
          "type": "address"
        }
      ],
      "name": "upgradeTo",
      "outputs": [],
      "payable": false,
      "stateMutability": "nonpayable",
      "type": "function"
    },
    {
      "constant": false,
      "inputs": [
        {
          "name": "_target",
          "type": "address"
        },
        {
          "name": "_data",
          "type": "bytes"
        }
      ],
      "name": "upgradeTo",
      "outputs": [],
      "payable": false,
      "stateMutability": "nonpayable",
      "type": "function"
    }
  ],
  "bytecode": "0x60806040526000805460a060020a60ff021916905534801561002057600080fd5b50604051602080610764833981016040525160008054600160a060020a031916331790556100568164010000000061005c810204565b506100e1565b60008054600160a060020a0316331461007457600080fd5b600154600160a060020a038381169116141561008c57fe5b5060018054600160a060020a03838116600160a060020a03198316811790935560405191169133918391907fe79b6a8d68293faecf550170958caa9dcab36cab525137e61050eefa170dd93a90600090a45050565b610674806100f06000396000f3006080604052600436106100a35763ffffffff7c01000000000000000000000000000000000000000000000000000000006000350416633659cfe681146101105780633f4ba83a146101335780635c975abb146101485780636fbc15e914610171578063715018a6146101d85780638456cb59146101ed5780638da5cb5b14610202578063cbca47db14610233578063d4b8399214610254578063f2fde38b14610269575b6060600080368080601f01602080910402602001604051908101604052809392919081815260200183838082843750506001548551959750600160a060020a03169550600094859450925050602086019050845af43d604051816000823e82801561010c578282f35b8282fd5b34801561011c57600080fd5b50610131600160a060020a036004351661028a565b005b34801561013f57600080fd5b5061013161031c565b34801561015457600080fd5b5061015d6103a3565b604080519115158252519081900360200190f35b34801561017d57600080fd5b5060408051602060046024803582810135601f8101859004850286018501909652858552610131958335600160a060020a03169536956044949193909101919081908401838280828437509497506103c49650505050505050565b3480156101e457600080fd5b5061013161046c565b3480156101f957600080fd5b506101316104d8565b34801561020e57600080fd5b50610217610575565b60408051600160a060020a039092168252519081900360200190f35b34801561023f57600080fd5b5061015d600160a060020a0360043516610584565b34801561026057600080fd5b50610217610599565b34801561027557600080fd5b50610131600160a060020a03600435166105a8565b60008054600160a060020a031633146102a257600080fd5b600154600160a060020a03838116911614156102ba57fe5b5060018054600160a060020a0383811673ffffffffffffffffffffffffffffffffffffffff198316811790935560405191169133918391907fe79b6a8d68293faecf550170958caa9dcab36cab525137e61050eefa170dd93a90600090a45050565b600054600160a060020a0316331461033357600080fd5b60005474010000000000000000000000000000000000000000900460ff16151561035c57600080fd5b6000805474ff0000000000000000000000000000000000000000191681556040517f7805862f689e2f13df9f062ff482ad3ad112aca9e0847911ed832e158c525b339190a1565b60005474010000000000000000000000000000000000000000900460ff1681565b600054600160a060020a031633146103db57600080fd5b6103e48261028a565b6001546040518251600160a060020a03909216918391908190602084019080838360005b83811015610420578181015183820152602001610408565b50505050905090810190601f16801561044d5780820380516001836020036101000a031916815260200191505b50915050600060405180830381855af4915050151561046857fe5b5050565b600054600160a060020a0316331461048357600080fd5b60008054604051600160a060020a03909116917ff8df31144d9c2f0f6b59d69b8b98abd5459d07f2742c4df920b25aae33c6482091a26000805473ffffffffffffffffffffffffffffffffffffffff19169055565b600054600160a060020a031633146104ef57600080fd5b60005474010000000000000000000000000000000000000000900460ff161561051757600080fd5b6000805474ff00000000000000000000000000000000000000001916740100000000000000000000000000000000000000001781556040517f6985a02210a168e66602d3235cb6db0e70f92b3ba4d376a33c0f3d9434bff6259190a1565b600054600160a060020a031681565b60026020526000908152604090205460ff1681565b600154600160a060020a031681565b600054600160a060020a031633146105bf57600080fd5b6105c8816105cb565b50565b600160a060020a03811615156105e057600080fd5b60008054604051600160a060020a03808516939216917f8be0079c531659141344cd1fd0a4f28419497f9722a3daafe3b4186f6b6457e091a36000805473ffffffffffffffffffffffffffffffffffffffff1916600160a060020a03929092169190911790555600a165627a7a723058207bd6c0db020c34bf08c6364365579e05ad02837da13dce6466c83a13fe48f69b0029",
  "source": "pragma solidity 0.4.24;\n\nimport \"./PausableProxied.sol\";\nimport \"./PausableUpgradeable.sol\";\n\n\n/**\n *  @title IuvoCore\n *  @author Jack Tanner. Made pausable by Matheus Alencar.\n  * @notice Original repo is here: https://github.com/jackandtheblockstalk/upgradeable-proxy\n */\ncontract PausableProxy is PausableProxied {\n\n    /*\n     * @notice Constructor sets the target and emmits an event with the first target\n     * @param _target - The target Upgradeable contracts address\n     */\n    constructor(address _target) public {\n        upgradeTo(_target);\n    }\n\n    /*\n     * @notice Upgrades the contract to a different target that has a changed logic. Can only be called by owner\n     * @dev See https://github.com/jackandtheblockstalk/upgradeable-proxy for what can and cannot be done in Upgradeable\n     * contracts\n     * @param _target - The target Upgradeable contracts address\n     */\n    function upgradeTo(address _target) public onlyOwner {\n        assert(target != _target);\n\n        address oldTarget = target;\n        target = _target;\n\n        emit EventUpgrade(_target, oldTarget, msg.sender);\n    }\n\n    /*\n     * @notice Performs an upgrade and then executes a transaction. Intended use to upgrade and initialize atomically\n     */\n    function upgradeTo(address _target, bytes _data) public onlyOwner {\n        upgradeTo(_target);\n        assert(target.delegatecall(_data));\n    }\n\n    /*\n     * @notice Fallback function that will execute code from the target contract to process a function call.\n     * @dev Will use the delegatecall opcode to retain the current state of the Proxy contract and use the logic\n     * from the target contract to process it.\n     */\n    function () payable public {\n        bytes memory data = msg.data;\n        address impl = target;\n\n        assembly {\n            let result := delegatecall(gas, impl, add(data, 0x20), mload(data), 0, 0)\n            let size := returndatasize\n\n            let ptr := mload(0x40)\n            returndatacopy(ptr, 0, size)\n\n            switch result\n            case 0 { revert(ptr, size) }\n            default { return(ptr, size) }\n        }\n    }\n}",
  "sourcePath": "/home/rigel/Documents/iuvo/contracts/PausableProxy.sol",
  "compiler": {
    "name": "solc",
    "version": "0.4.24+commit.e67f0147.Emscripten.clang"
  },
  "schemaVersion": "2.0.1",
  "updatedAt": "2018-08-07T23:48:34.347Z"
}