{
  "contractName": "PausableUpgradeable",
  "abi": [
    {
      "constant": false,
      "inputs": [],
      "name": "unpause",
      "outputs": [],
      "payable": false,
      "stateMutability": "nonpayable",
      "type": "function"
    },
    {
      "constant": true,
      "inputs": [],
      "name": "paused",
      "outputs": [
        {
          "name": "",
          "type": "bool"
        }
      ],
      "payable": false,
      "stateMutability": "view",
      "type": "function"
    },
    {
      "constant": false,
      "inputs": [],
      "name": "renounceOwnership",
      "outputs": [],
      "payable": false,
      "stateMutability": "nonpayable",
      "type": "function"
    },
    {
      "constant": false,
      "inputs": [],
      "name": "pause",
      "outputs": [],
      "payable": false,
      "stateMutability": "nonpayable",
      "type": "function"
    },
    {
      "constant": true,
      "inputs": [],
      "name": "owner",
      "outputs": [
        {
          "name": "",
          "type": "address"
        }
      ],
      "payable": false,
      "stateMutability": "view",
      "type": "function"
    },
    {
      "constant": true,
      "inputs": [
        {
          "name": "",
          "type": "address"
        }
      ],
      "name": "initialized",
      "outputs": [
        {
          "name": "",
          "type": "bool"
        }
      ],
      "payable": false,
      "stateMutability": "view",
      "type": "function"
    },
    {
      "constant": true,
      "inputs": [],
      "name": "target",
      "outputs": [
        {
          "name": "",
          "type": "address"
        }
      ],
      "payable": false,
      "stateMutability": "view",
      "type": "function"
    },
    {
      "constant": false,
      "inputs": [
        {
          "name": "_newOwner",
          "type": "address"
        }
      ],
      "name": "transferOwnership",
      "outputs": [],
      "payable": false,
      "stateMutability": "nonpayable",
      "type": "function"
    },
    {
      "anonymous": false,
      "inputs": [
        {
          "indexed": true,
          "name": "newTarget",
          "type": "address"
        },
        {
          "indexed": true,
          "name": "oldTarget",
          "type": "address"
        },
        {
          "indexed": true,
          "name": "admin",
          "type": "address"
        }
      ],
      "name": "EventUpgrade",
      "type": "event"
    },
    {
      "anonymous": false,
      "inputs": [
        {
          "indexed": true,
          "name": "target",
          "type": "address"
        }
      ],
      "name": "EventInitialized",
      "type": "event"
    },
    {
      "anonymous": false,
      "inputs": [],
      "name": "Pause",
      "type": "event"
    },
    {
      "anonymous": false,
      "inputs": [],
      "name": "Unpause",
      "type": "event"
    },
    {
      "anonymous": false,
      "inputs": [
        {
          "indexed": true,
          "name": "previousOwner",
          "type": "address"
        }
      ],
      "name": "OwnershipRenounced",
      "type": "event"
    },
    {
      "anonymous": false,
      "inputs": [
        {
          "indexed": true,
          "name": "previousOwner",
          "type": "address"
        },
        {
          "indexed": true,
          "name": "newOwner",
          "type": "address"
        }
      ],
      "name": "OwnershipTransferred",
      "type": "event"
    },
    {
      "constant": false,
      "inputs": [
        {
          "name": "",
          "type": "address"
        }
      ],
      "name": "upgradeTo",
      "outputs": [],
      "payable": false,
      "stateMutability": "nonpayable",
      "type": "function"
    },
    {
      "constant": false,
      "inputs": [],
      "name": "initialize",
      "outputs": [],
      "payable": false,
      "stateMutability": "nonpayable",
      "type": "function"
    }
  ],
  "bytecode": "0x608060405260008054600160a860020a031916331790556104f8806100256000396000f3006080604052600436106100a35763ffffffff7c01000000000000000000000000000000000000000000000000000000006000350416633659cfe681146100a85780633f4ba83a146100cb5780635c975abb146100e0578063715018a6146101095780638129fc1c1461011e5780638456cb59146101335780638da5cb5b14610148578063cbca47db14610179578063d4b839921461019a578063f2fde38b146101af575b600080fd5b3480156100b457600080fd5b506100c9600160a060020a03600435166101d0565b005b3480156100d757600080fd5b506100c96101d5565b3480156100ec57600080fd5b506100f561025c565b604080519115158252519081900360200190f35b34801561011557600080fd5b506100c961027d565b34801561012a57600080fd5b506100c96102e9565b34801561013f57600080fd5b506100c9610364565b34801561015457600080fd5b5061015d610401565b60408051600160a060020a039092168252519081900360200190f35b34801561018557600080fd5b506100f5600160a060020a0360043516610410565b3480156101a657600080fd5b5061015d610425565b3480156101bb57600080fd5b506100c9600160a060020a0360043516610434565bfe5b50565b600054600160a060020a031633146101ec57600080fd5b60005474010000000000000000000000000000000000000000900460ff16151561021557600080fd5b6000805474ff0000000000000000000000000000000000000000191681556040517f7805862f689e2f13df9f062ff482ad3ad112aca9e0847911ed832e158c525b339190a1565b60005474010000000000000000000000000000000000000000900460ff1681565b600054600160a060020a0316331461029457600080fd5b60008054604051600160a060020a03909116917ff8df31144d9c2f0f6b59d69b8b98abd5459d07f2742c4df920b25aae33c6482091a26000805473ffffffffffffffffffffffffffffffffffffffff19169055565b600154600160a060020a031660009081526002602052604090205460ff1615156100a35760018054600160a060020a03908116600090815260026020526040808220805460ff1916851790559254925192909116917f46262b692680f1907961b1c2f80ce936b0bc7d72985aec6c7d3d91dd79b113fd9190a2565b600054600160a060020a0316331461037b57600080fd5b60005474010000000000000000000000000000000000000000900460ff16156103a357600080fd5b6000805474ff00000000000000000000000000000000000000001916740100000000000000000000000000000000000000001781556040517f6985a02210a168e66602d3235cb6db0e70f92b3ba4d376a33c0f3d9434bff6259190a1565b600054600160a060020a031681565b60026020526000908152604090205460ff1681565b600154600160a060020a031681565b600054600160a060020a0316331461044b57600080fd5b6101d281600160a060020a038116151561046457600080fd5b60008054604051600160a060020a03808516939216917f8be0079c531659141344cd1fd0a4f28419497f9722a3daafe3b4186f6b6457e091a36000805473ffffffffffffffffffffffffffffffffffffffff1916600160a060020a03929092169190911790555600a165627a7a723058208270becb6983d6031109cfc105a84dadae218f69b883354870e99046cb4404ec0029",
  "source": "pragma solidity ^0.4.24;\n\nimport \"./PausableProxied.sol\";\n\ncontract PausableUpgradeable is PausableProxied {\n    /*\n     * @notice Modifier to make body of function only execute if the contract has not already been initialized.\n     */\n    modifier initializeOnceOnly() {\n         if(!initialized[target]) {\n             initialized[target] = true;\n             emit EventInitialized(target);\n             _;\n         } else revert();\n    }\n\n    /**\n     * @notice Will always fail if called. This is used as a placeholder for the contract ABI.\n     * @dev This is code is never executed by the Proxy using delegate call\n     */\n    function upgradeTo(address) public {\n        assert(false);\n    }\n\n    /**\n     * @notice Initialize any state variables that would normally be set in the contructor.\n     * @dev Initialization functionality MUST be implemented in inherited upgradeable contract if the child contract requires\n     * variable initialization on creation. This is because the contructor of the child contract will not execute\n     * and set any state when the Proxy contract targets it.\n     * This function MUST be called stright after the Upgradeable contract is set as the target of the Proxy. This method\n     * can be overwridden so that it may have arguments. Make sure that the initializeOnceOnly() modifier is used to protect\n     * from being initialized more than once.\n     * If a contract is upgraded twice, pay special attention that the state variables are not initialized again\n     */\n    function initialize() initializeOnceOnly public {\n        // initialize contract state variables here\n    }\n}",
  "sourcePath": "/home/rigel/Documents/iuvo/contracts/PausableUpgradeable.sol",
  "compiler": {
    "name": "solc",
    "version": "0.4.24+commit.e67f0147.Emscripten.clang"
  },
  "schemaVersion": "2.0.1",
  "updatedAt": "2018-07-31T01:32:10.017Z"
}