{
  "contractName": "PausableUpgradeable",
  "abi": [
    {
      "constant": false,
      "inputs": [],
      "name": "unpause",
      "outputs": [],
      "payable": false,
      "stateMutability": "nonpayable",
      "type": "function"
    },
    {
      "constant": true,
      "inputs": [],
      "name": "paused",
      "outputs": [
        {
          "name": "",
          "type": "bool"
        }
      ],
      "payable": false,
      "stateMutability": "view",
      "type": "function"
    },
    {
      "constant": false,
      "inputs": [],
      "name": "pause",
      "outputs": [],
      "payable": false,
      "stateMutability": "nonpayable",
      "type": "function"
    },
    {
      "constant": true,
      "inputs": [],
      "name": "owner",
      "outputs": [
        {
          "name": "",
          "type": "address"
        }
      ],
      "payable": false,
      "stateMutability": "view",
      "type": "function"
    },
    {
      "constant": true,
      "inputs": [
        {
          "name": "",
          "type": "address"
        }
      ],
      "name": "initialized",
      "outputs": [
        {
          "name": "",
          "type": "bool"
        }
      ],
      "payable": false,
      "stateMutability": "view",
      "type": "function"
    },
    {
      "constant": true,
      "inputs": [],
      "name": "target",
      "outputs": [
        {
          "name": "",
          "type": "address"
        }
      ],
      "payable": false,
      "stateMutability": "view",
      "type": "function"
    },
    {
      "constant": false,
      "inputs": [
        {
          "name": "newOwner",
          "type": "address"
        }
      ],
      "name": "transferOwnership",
      "outputs": [],
      "payable": false,
      "stateMutability": "nonpayable",
      "type": "function"
    },
    {
      "anonymous": false,
      "inputs": [
        {
          "indexed": true,
          "name": "newTarget",
          "type": "address"
        },
        {
          "indexed": true,
          "name": "oldTarget",
          "type": "address"
        },
        {
          "indexed": true,
          "name": "admin",
          "type": "address"
        }
      ],
      "name": "EventUpgrade",
      "type": "event"
    },
    {
      "anonymous": false,
      "inputs": [
        {
          "indexed": true,
          "name": "target",
          "type": "address"
        }
      ],
      "name": "EventInitialized",
      "type": "event"
    },
    {
      "anonymous": false,
      "inputs": [],
      "name": "Pause",
      "type": "event"
    },
    {
      "anonymous": false,
      "inputs": [],
      "name": "Unpause",
      "type": "event"
    },
    {
      "anonymous": false,
      "inputs": [
        {
          "indexed": true,
          "name": "previousOwner",
          "type": "address"
        },
        {
          "indexed": true,
          "name": "newOwner",
          "type": "address"
        }
      ],
      "name": "OwnershipTransferred",
      "type": "event"
    },
    {
      "constant": false,
      "inputs": [
        {
          "name": "",
          "type": "address"
        }
      ],
      "name": "upgradeTo",
      "outputs": [],
      "payable": false,
      "stateMutability": "nonpayable",
      "type": "function"
    },
    {
      "constant": false,
      "inputs": [],
      "name": "initialize",
      "outputs": [],
      "payable": false,
      "stateMutability": "nonpayable",
      "type": "function"
    }
  ],
  "bytecode": "0x608060405260008054600160a860020a0319163317905561051b806100256000396000f3006080604052600436106100985763ffffffff7c01000000000000000000000000000000000000000000000000000000006000350416633659cfe6811461009d5780633f4ba83a146100cd5780635c975abb146100e25780638129fc1c1461010b5780638456cb59146101205780638da5cb5b14610135578063cbca47db14610173578063d4b83992146101a1578063f2fde38b146101b6575b600080fd5b3480156100a957600080fd5b506100cb73ffffffffffffffffffffffffffffffffffffffff600435166101e4565b005b3480156100d957600080fd5b506100cb6101e6565b3480156100ee57600080fd5b506100f761027a565b604080519115158252519081900360200190f35b34801561011757600080fd5b506100cb61029b565b34801561012c57600080fd5b506100cb610330565b34801561014157600080fd5b5061014a6103da565b6040805173ffffffffffffffffffffffffffffffffffffffff9092168252519081900360200190f35b34801561017f57600080fd5b506100f773ffffffffffffffffffffffffffffffffffffffff600435166103f6565b3480156101ad57600080fd5b5061014a61040b565b3480156101c257600080fd5b506100cb73ffffffffffffffffffffffffffffffffffffffff60043516610427565bfe5b60005473ffffffffffffffffffffffffffffffffffffffff16331461020a57600080fd5b60005474010000000000000000000000000000000000000000900460ff16151561023357600080fd5b6000805474ff0000000000000000000000000000000000000000191681556040517f7805862f689e2f13df9f062ff482ad3ad112aca9e0847911ed832e158c525b339190a1565b60005474010000000000000000000000000000000000000000900460ff1681565b60015473ffffffffffffffffffffffffffffffffffffffff1660009081526002602052604090205460ff161515610098576001805473ffffffffffffffffffffffffffffffffffffffff908116600090815260026020526040808220805460ff1916851790559254925192909116917f46262b692680f1907961b1c2f80ce936b0bc7d72985aec6c7d3d91dd79b113fd9190a2565b60005473ffffffffffffffffffffffffffffffffffffffff16331461035457600080fd5b60005474010000000000000000000000000000000000000000900460ff161561037c57600080fd5b6000805474ff00000000000000000000000000000000000000001916740100000000000000000000000000000000000000001781556040517f6985a02210a168e66602d3235cb6db0e70f92b3ba4d376a33c0f3d9434bff6259190a1565b60005473ffffffffffffffffffffffffffffffffffffffff1681565b60026020526000908152604090205460ff1681565b60015473ffffffffffffffffffffffffffffffffffffffff1681565b60005473ffffffffffffffffffffffffffffffffffffffff16331461044b57600080fd5b73ffffffffffffffffffffffffffffffffffffffff8116151561046d57600080fd5b6000805460405173ffffffffffffffffffffffffffffffffffffffff808516939216917f8be0079c531659141344cd1fd0a4f28419497f9722a3daafe3b4186f6b6457e091a36000805473ffffffffffffffffffffffffffffffffffffffff191673ffffffffffffffffffffffffffffffffffffffff929092169190911790555600a165627a7a723058200a2d452fb697656c0ced94ced9c0550001bbdcd900fc0516e1cb59cc6d23f3590029",
  "source": "pragma solidity 0.4.24;\n\nimport \"./PausableProxied.sol\";\n\n\n/*\n * @title PausableUpgradeable\n * @author Jack Tanner. Made pausable by Matheus Alencar.\n * @notice Original repo is here: https://github.com/jackandtheblockstalk/upgradeable-proxy\n * \n */\ncontract PausableUpgradeable is PausableProxied {\n    /*\n     * @notice Modifier to make body of function only execute if the contract has not already \n     * been initialized.\n     */\n    modifier initializeOnceOnly() {\n        if(!initialized[target]) {\n            initialized[target] = true;\n            emit EventInitialized(target);\n            _;\n        } else revert();\n    }\n\n    /**\n     * @notice Will always fail if called. This is used as a placeholder for the contract ABI.\n     * @dev This is code is never executed by the Proxy using delegate call\n     */\n    function upgradeTo(address) public {\n        assert(false);\n    }\n\n    /**\n     * @notice Initialize any state variables that would normally be set in the contructor.\n     * @dev Initialization functionality MUST be implemented in inherited upgradeable contract if the child contract requires\n     * variable initialization on creation. This is because the contructor of the child contract will not execute\n     * and set any state when the Proxy contract targets it.\n     * This function MUST be called stright after the Upgradeable contract is set as the target of the Proxy. This method\n     * can be overwridden so that it may have arguments. Make sure that the initializeOnceOnly() modifier is used to protect\n     * from being initialized more than once.\n     * If a contract is upgraded twice, pay special attention that the state variables are not initialized again\n     */\n    function initialize() public initializeOnceOnly {\n        // initialize contract state variables here\n    }\n}",
  "sourcePath": "/home/ubuntu/workspace/iuvo/contracts/PausableUpgradeable.sol",
  "compiler": {
    "name": "solc",
    "version": "0.4.24+commit.e67f0147.Emscripten.clang"
  },
  "schemaVersion": "2.0.1",
  "updatedAt": "2018-08-10T13:33:35.934Z"
}