{
  "contractName": "TwoPartyArbitrable",
  "abi": [
    {
      "constant": true,
      "inputs": [],
      "name": "arbitratorExtraData",
      "outputs": [
        {
          "name": "",
          "type": "bytes"
        }
      ],
      "payable": false,
      "stateMutability": "view",
      "type": "function"
    },
    {
      "constant": true,
      "inputs": [],
      "name": "partyA",
      "outputs": [
        {
          "name": "",
          "type": "address"
        }
      ],
      "payable": false,
      "stateMutability": "view",
      "type": "function"
    },
    {
      "constant": true,
      "inputs": [],
      "name": "status",
      "outputs": [
        {
          "name": "",
          "type": "uint8"
        }
      ],
      "payable": false,
      "stateMutability": "view",
      "type": "function"
    },
    {
      "constant": true,
      "inputs": [],
      "name": "partyB",
      "outputs": [
        {
          "name": "",
          "type": "address"
        }
      ],
      "payable": false,
      "stateMutability": "view",
      "type": "function"
    },
    {
      "constant": false,
      "inputs": [
        {
          "name": "_disputeID",
          "type": "uint256"
        },
        {
          "name": "_ruling",
          "type": "uint256"
        }
      ],
      "name": "rule",
      "outputs": [],
      "payable": false,
      "stateMutability": "nonpayable",
      "type": "function"
    },
    {
      "constant": true,
      "inputs": [],
      "name": "partyAFee",
      "outputs": [
        {
          "name": "",
          "type": "uint256"
        }
      ],
      "payable": false,
      "stateMutability": "view",
      "type": "function"
    },
    {
      "constant": true,
      "inputs": [],
      "name": "partyBFee",
      "outputs": [
        {
          "name": "",
          "type": "uint256"
        }
      ],
      "payable": false,
      "stateMutability": "view",
      "type": "function"
    },
    {
      "constant": true,
      "inputs": [],
      "name": "arbitrator",
      "outputs": [
        {
          "name": "",
          "type": "address"
        }
      ],
      "payable": false,
      "stateMutability": "view",
      "type": "function"
    },
    {
      "constant": true,
      "inputs": [],
      "name": "timeout",
      "outputs": [
        {
          "name": "",
          "type": "uint256"
        }
      ],
      "payable": false,
      "stateMutability": "view",
      "type": "function"
    },
    {
      "constant": true,
      "inputs": [],
      "name": "lastInteraction",
      "outputs": [
        {
          "name": "",
          "type": "uint256"
        }
      ],
      "payable": false,
      "stateMutability": "view",
      "type": "function"
    },
    {
      "constant": true,
      "inputs": [],
      "name": "disputeID",
      "outputs": [
        {
          "name": "",
          "type": "uint256"
        }
      ],
      "payable": false,
      "stateMutability": "view",
      "type": "function"
    },
    {
      "inputs": [
        {
          "name": "_arbitrator",
          "type": "address"
        },
        {
          "name": "_timeout",
          "type": "uint256"
        },
        {
          "name": "_partyB",
          "type": "address"
        },
        {
          "name": "_arbitratorExtraData",
          "type": "bytes"
        },
        {
          "name": "_metaEvidence",
          "type": "string"
        }
      ],
      "payable": false,
      "stateMutability": "nonpayable",
      "type": "constructor"
    },
    {
      "anonymous": false,
      "inputs": [
        {
          "indexed": false,
          "name": "_party",
          "type": "uint8"
        }
      ],
      "name": "HasToPayFee",
      "type": "event"
    },
    {
      "anonymous": false,
      "inputs": [
        {
          "indexed": true,
          "name": "_arbitrator",
          "type": "address"
        },
        {
          "indexed": true,
          "name": "_disputeID",
          "type": "uint256"
        },
        {
          "indexed": false,
          "name": "_rulingOptions",
          "type": "string"
        }
      ],
      "name": "Dispute",
      "type": "event"
    },
    {
      "anonymous": false,
      "inputs": [
        {
          "indexed": true,
          "name": "_arbitrator",
          "type": "address"
        },
        {
          "indexed": true,
          "name": "_disputeID",
          "type": "uint256"
        },
        {
          "indexed": false,
          "name": "_ruling",
          "type": "uint256"
        }
      ],
      "name": "Ruling",
      "type": "event"
    },
    {
      "anonymous": false,
      "inputs": [
        {
          "indexed": true,
          "name": "_metaEvidenceID",
          "type": "uint256"
        },
        {
          "indexed": false,
          "name": "_evidence",
          "type": "string"
        }
      ],
      "name": "MetaEvidence",
      "type": "event"
    },
    {
      "anonymous": false,
      "inputs": [
        {
          "indexed": true,
          "name": "_arbitrator",
          "type": "address"
        },
        {
          "indexed": true,
          "name": "_disputeID",
          "type": "uint256"
        },
        {
          "indexed": false,
          "name": "_metaEvidenceID",
          "type": "uint256"
        }
      ],
      "name": "LinkMetaEvidence",
      "type": "event"
    },
    {
      "anonymous": false,
      "inputs": [
        {
          "indexed": true,
          "name": "_arbitrator",
          "type": "address"
        },
        {
          "indexed": true,
          "name": "_disputeID",
          "type": "uint256"
        },
        {
          "indexed": false,
          "name": "_party",
          "type": "address"
        },
        {
          "indexed": false,
          "name": "_evidence",
          "type": "string"
        }
      ],
      "name": "Evidence",
      "type": "event"
    },
    {
      "constant": false,
      "inputs": [],
      "name": "payArbitrationFeeByPartyA",
      "outputs": [],
      "payable": true,
      "stateMutability": "payable",
      "type": "function"
    },
    {
      "constant": false,
      "inputs": [],
      "name": "payArbitrationFeeByPartyB",
      "outputs": [],
      "payable": true,
      "stateMutability": "payable",
      "type": "function"
    },
    {
      "constant": false,
      "inputs": [],
      "name": "timeOutByPartyA",
      "outputs": [],
      "payable": false,
      "stateMutability": "nonpayable",
      "type": "function"
    },
    {
      "constant": false,
      "inputs": [],
      "name": "timeOutByPartyB",
      "outputs": [],
      "payable": false,
      "stateMutability": "nonpayable",
      "type": "function"
    },
    {
      "constant": false,
      "inputs": [
        {
          "name": "_evidence",
          "type": "string"
        }
      ],
      "name": "submitEvidence",
      "outputs": [],
      "payable": false,
      "stateMutability": "nonpayable",
      "type": "function"
    },
    {
      "constant": false,
      "inputs": [
        {
          "name": "_extraData",
          "type": "bytes"
        }
      ],
      "name": "appeal",
      "outputs": [],
      "payable": true,
      "stateMutability": "payable",
      "type": "function"
    }
  ],
  "bytecode": "0x608060405234801561001057600080fd5b506040516200104d3803806200104d8339810160409081528151602080840151928401516060850151608086015160008054600160a060020a031916600160a060020a038716179055908601805194969294909391909201918691849161007d9160019190840190610151565b50505060028490556003805433600160a060020a03199182161790915560048054909116600160a060020a03851617905560408051602080825283518183015283516000937f61606860eb6c87306811e2695215385101daab53bd6ab4e9f9049aead9363c7d938693909283928301918501908083838a5b8381101561010d5781810151838201526020016100f5565b50505050905090810190601f16801561013a5780820380516001836020036101000a031916815260200191505b509250505060405180910390a250505050506101ec565b828054600181600116156101000203166002900490600052602060002090601f016020900481019282601f1061019257805160ff19168380011785556101bf565b828001600101855582156101bf579182015b828111156101bf5782518255916020019190600101906101a4565b506101cb9291506101cf565b5090565b6101e991905b808211156101cb57600081556001016101d5565b90565b610e5180620001fc6000396000f3006080604052600436106100f05763ffffffff7c0100000000000000000000000000000000000000000000000000000000600035041663069fae2a81146100f55780630c7ac7b61461014357806310e1d8ca146101cd57806319e2641e146101fe578063200d2ed214610213578063290401131461024c578063311a6c56146102615780634b40c9741461027c578063512491f1146102a35780636cc6cde1146102b857806370dea79a146102cd578063853c80ce146102e25780638f71a265146102f7578063a01096311461030c578063b0a1e2b414610314578063b1bcce3a14610329578063bac91e2e14610331575b600080fd5b6040805160206004803580820135601f810184900484028501840190955284845261014194369492936024939284019190819084018382808284375094975061038a9650505050505050565b005b34801561014f57600080fd5b506101586104a8565b6040805160208082528351818301528351919283929083019185019080838360005b8381101561019257818101518382015260200161017a565b50505050905090810190601f1680156101bf5780820380516001836020036101000a031916815260200191505b509250505060405180910390f35b3480156101d957600080fd5b506101e2610535565b60408051600160a060020a039092168252519081900360200190f35b34801561020a57600080fd5b50610141610544565b34801561021f57600080fd5b5061022861059b565b6040518082600481111561023857fe5b60ff16815260200191505060405180910390f35b34801561025857600080fd5b506101e26105a4565b34801561026d57600080fd5b506101416004356024356105b3565b34801561028857600080fd5b5061029161060f565b60408051918252519081900360200190f35b3480156102af57600080fd5b50610291610615565b3480156102c457600080fd5b506101e261061b565b3480156102d957600080fd5b5061029161062a565b3480156102ee57600080fd5b50610141610630565b34801561030357600080fd5b50610291610685565b61014161068b565b34801561032057600080fd5b5061029161084c565b610141610852565b34801561033d57600080fd5b506040805160206004803580820135601f81018490048402850184019095528484526101419436949293602493928401919081908401838280828437509497506109f39650505050505050565b600354600160a060020a03163314806103ad5750600454600160a060020a031633145b15156103b857600080fd5b60008054600854604080517f49912f880000000000000000000000000000000000000000000000000000000081526004810183815260248201928352865160448301528651600160a060020a03909516956349912f88953495948994909260649091019160208601918190849084905b83811015610440578181015183820152602001610428565b50505050905090810190601f16801561046d5780820380516001836020036101000a031916815260200191505b5093505050506000604051808303818588803b15801561048c57600080fd5b505af11580156104a0573d6000803e3d6000fd5b505050505050565b60018054604080516020600284861615610100026000190190941693909304601f8101849004840282018401909252818152929183018282801561052d5780601f106105025761010080835404028352916020019161052d565b820191906000526020600020905b81548152906001019060200180831161051057829003601f168201915b505050505081565b600354600160a060020a031681565b600354600160a060020a0316331461055b57600080fd5b600260095460ff16600481111561056e57fe5b1461057857600080fd5b6002546007540142101561058b57600080fd5b600854610599906001610b16565b565b60095460ff1681565b600454600160a060020a031681565b600054600160a060020a031633146105ca57600080fd5b604080518281529051839133917f394027a5fa6e098a1191094d1719d6929b9abc535fcc0c8f448d6a4e756222769181900360200190a361060b8282610b16565b5050565b60055481565b60065481565b600054600160a060020a031681565b60025481565b600454600160a060020a0316331461064757600080fd5b600160095460ff16600481111561065a57fe5b1461066457600080fd5b6002546007540142101561067757600080fd5b600854610599906002610b16565b60075481565b600354600090600160a060020a031633146106a557600080fd5b6000546040517ff7434ea90000000000000000000000000000000000000000000000000000000081526020600482019081526001805460026000198284161561010002019091160460248401819052600160a060020a039094169363f7434ea9939192918291604490910190849080156107605780601f1061073557610100808354040283529160200191610760565b820191906000526020600020905b81548152906001019060200180831161074357829003601f168201915b505092505050602060405180830381600087803b15801561078057600080fd5b505af1158015610794573d6000803e3d6000fd5b505050506040513d60208110156107aa57600080fd5b5051600580543401908190559091508111156107c557600080fd5b600360095460ff1660048111156107d857fe5b106107e257600080fd5b42600755600654811115610840576009805460ff191660021790556040517fba8db766b5582c21593909b57af48297714ea2c508bfff6c537ce36bb853e5689060019080825b60ff16815260200191505060405180910390a1610849565b61084981610bde565b50565b60085481565b600454600090600160a060020a0316331461086c57600080fd5b6000546040517ff7434ea90000000000000000000000000000000000000000000000000000000081526020600482019081526001805460026000198284161561010002019091160460248401819052600160a060020a039094169363f7434ea9939192918291604490910190849080156109275780601f106108fc57610100808354040283529160200191610927565b820191906000526020600020905b81548152906001019060200180831161090a57829003601f168201915b505092505050602060405180830381600087803b15801561094757600080fd5b505af115801561095b573d6000803e3d6000fd5b505050506040513d602081101561097157600080fd5b50516006805434019081905590915081111561098c57600080fd5b600360095460ff16600481111561099f57fe5b106109a957600080fd5b42600755600554811115610840576009805460ff191660011790556040517fba8db766b5582c21593909b57af48297714ea2c508bfff6c537ce36bb853e568906000908082610828565b600354600160a060020a0316331480610a165750600454600160a060020a031633145b1515610a2157600080fd5b600360095460ff166004811115610a3457fe5b1015610a3f57600080fd5b6008546000809054906101000a9004600160a060020a0316600160a060020a03167fdccf2f8b2cc26eafcd61905cba744cff4b81d14740725f6376390dc6298a6a3c33846040518083600160a060020a0316600160a060020a0316815260200180602001828103825283818151815260200191508051906020019080838360005b83811015610ad8578181015183820152602001610ac0565b50505050905090810190601f168015610b055780820380516001836020036101000a031916815260200191505b50935050505060405180910390a350565b6008548214610b2457600080fd5b6002811115610b3257600080fd5b6001811415610b8257600354600654600554600160a060020a03909216916108fc9110610b6157600654610b65565b6005545b6040518115909202916000818181858888f1935050505050610bcd565b6002811415610bcd57600454600654600554600160a060020a03909216916108fc9110610bb157600654610bb5565b6005545b6040518115909202916000818181858888f150505050505b50506009805460ff19166004179055565b6009805460ff19166003179055600054604080517fc13517e100000000000000000000000000000000000000000000000000000000815260026004820181815260248301938452600180546101008183161502600019011683900460448501819052600160a060020a039096169563c13517e1958895929392909160649091019084908015610cae5780601f10610c8357610100808354040283529160200191610cae565b820191906000526020600020905b815481529060010190602001808311610c9157829003601f168201915b505093505050506020604051808303818588803b158015610cce57600080fd5b505af1158015610ce2573d6000803e3d6000fd5b50505050506040513d6020811015610cf957600080fd5b5051600881905560008054604080518082018252601981527f506172747920412077696e733b506172747920422077696e7300000000000000602082810191825283518181528351918101919091528251600160a060020a03909516957f775071bee3f2d409883bcb9dfcef6befa9343668ab341f76fcc5817b52a126119593949193849392840192918190849084905b83811015610da2578181015183820152602001610d8a565b50505050905090810190601f168015610dcf5780820380516001836020036101000a031916815260200191505b509250505060405180910390a3600854600080546040805192835251600160a060020a03909116917f21da1f02e8071a7680b73ad6e5bc1aee1f8f0620a0a08a0333be1f0ca9dd7fec919081900360200190a3505600a165627a7a7230582058b9264523fdcaf344725486fd41fd16923cbde79fc42faf969bfff387d9bb580029",
  "source": "/**\n *  @title Two-Party Arbitrable\n *  @author Clément Lesaege - <clement@lesaege.com>\n *  Bug Bounties: This code hasn't undertaken a bug bounty program yet.\n */\n\n\npragma solidity ^0.4.15;\nimport \"./Arbitrable.sol\";\n\n\n/** @title Two-Party Arbitrable\n *  @dev A contract between two parties which can be arbitrated. Both parties has to pay for the arbitration fee. The winning party will get its fee refunded.\n *  To develop a contract inheriting from this one, you need to:\n *  - Redefine RULING_OPTIONS to explain the consequences of the possible rulings.\n *  - Redefine executeRuling while still calling super.executeRuling to implement the results of the arbitration.\n */\ncontract TwoPartyArbitrable is Arbitrable {\n    uint public timeout; // Time in second a party can take before being considered unresponding and lose the dispute.\n    address public partyA;\n    address public partyB;\n    uint public partyAFee; // Total fees paid by the partyA.\n    uint public partyBFee; // Total fees paid by the partyB.\n    uint public lastInteraction; // Last interaction for the dispute procedure.\n    uint public disputeID;\n    enum Status {NoDispute, WaitingPartyA, WaitingPartyB, DisputeCreated, Resolved}\n    Status public status;\n\n    uint8 constant AMOUNT_OF_CHOICES = 2;\n    uint8 constant PARTY_A_WINS = 1;\n    uint8 constant PARTY_B_WINS = 2;\n    string constant RULING_OPTIONS = \"Party A wins;Party B wins\"; // A plain English of what rulings do. Need to be redefined by the child class.\n\n    modifier onlyPartyA{ require(msg.sender==partyA); _; }\n    modifier onlyPartyB{ require(msg.sender==partyB); _; }\n    modifier onlyParty{ require(msg.sender==partyA || msg.sender==partyB); _; }\n\n    enum Party {PartyA, PartyB}\n\n    /** @dev Indicate that a party has to pay a fee or would otherwise be considered as loosing.\n     *  @param _party The party who has to pay.\n     */\n    event HasToPayFee(Party _party);\n\n    /** @dev Constructor. Choose the arbitrator.\n     *  @param _arbitrator The arbitrator of the contract.\n     *  @param _timeout Time after which a party automatically loose a dispute.\n     *  @param _partyB The recipient of the transaction.\n     *  @param _arbitratorExtraData Extra data for the arbitrator.\n     *  @param _metaEvidence Link to the meta-evidence.\n     */\n    constructor(Arbitrator _arbitrator, uint _timeout, address _partyB, bytes _arbitratorExtraData, string _metaEvidence) Arbitrable(_arbitrator,_arbitratorExtraData) public {\n        timeout=_timeout;\n        partyA=msg.sender;\n        partyB=_partyB;\n        emit MetaEvidence(0, _metaEvidence);\n    }\n\n\n    /** @dev Pay the arbitration fee to raise a dispute. To be called by the party A. UNTRUSTED.\n     *  Note that the arbitrator can have createDispute throw, which will make this function throw and therefore lead to a party being timed-out.\n     *  This is not a vulnerability as the arbitrator can rule in favor of one party anyway.\n     */\n    function payArbitrationFeeByPartyA() public payable onlyPartyA {\n        uint arbitrationCost=arbitrator.arbitrationCost(arbitratorExtraData);\n        partyAFee+=msg.value;\n        require(partyAFee >= arbitrationCost); // Require that the total pay at least the arbitration cost.\n        require(status<Status.DisputeCreated); // Make sure a dispute has not been created yet.\n\n        lastInteraction=now;\n        if (partyBFee < arbitrationCost) { // The partyB still has to pay. This can also happens if he has paid, but arbitrationCost has increased.\n            status=Status.WaitingPartyB;\n            emit HasToPayFee(Party.PartyB);\n        } else { // The partyB has also paid the fee. We create the dispute\n            raiseDispute(arbitrationCost);\n        }\n    }\n\n\n    /** @dev Pay the arbitration fee to raise a dispute. To be called by the party B. UNTRUSTED.\n     *  Note that this function mirror payArbitrationFeeByPartyA.\n     */\n    function payArbitrationFeeByPartyB() public payable onlyPartyB {\n        uint arbitrationCost=arbitrator.arbitrationCost(arbitratorExtraData);\n        partyBFee+=msg.value;\n        require(partyBFee >= arbitrationCost); // Require that the total pay at least the arbitration cost.\n        require(status<Status.DisputeCreated); // Make sure a dispute has not been created yet.\n\n        lastInteraction=now;\n        if (partyAFee < arbitrationCost) { // The partyA still has to pay. This can also happens if he has paid, but arbitrationCost has increased.\n            status=Status.WaitingPartyA;\n            emit HasToPayFee(Party.PartyA);\n        } else { // The partyA has also paid the fee. We create the dispute\n            raiseDispute(arbitrationCost);\n        }\n    }\n\n    /** @dev Create a dispute. UNTRUSTED.\n     *  @param _arbitrationCost Amount to pay the arbitrator.\n     */\n    function raiseDispute(uint _arbitrationCost) internal {\n        status=Status.DisputeCreated;\n        disputeID=arbitrator.createDispute.value(_arbitrationCost)(AMOUNT_OF_CHOICES,arbitratorExtraData);\n        emit Dispute(arbitrator,disputeID,RULING_OPTIONS);\n        emit LinkMetaEvidence(arbitrator,disputeID,0);\n    }\n\n    /** @dev Reimburse partyA if partyB fails to pay the fee.\n     */\n    function timeOutByPartyA() public onlyPartyA {\n        require(status==Status.WaitingPartyB);\n        require(now>=lastInteraction+timeout);\n\n        executeRuling(disputeID,PARTY_A_WINS);\n    }\n\n    /** @dev Pay partyB if partyA fails to pay the fee.\n     */\n    function timeOutByPartyB() public onlyPartyB {\n        require(status==Status.WaitingPartyA);\n        require(now>=lastInteraction+timeout);\n\n        executeRuling(disputeID,PARTY_B_WINS);\n    }\n\n    /** @dev Submit a reference to evidence. EVENT.\n     *  @param _evidence A link to an evidence using its URI.\n     */\n    function submitEvidence(string _evidence) public onlyParty {\n        require(status>=Status.DisputeCreated);\n        emit Evidence(arbitrator,disputeID,msg.sender,_evidence);\n    }\n\n    /** @dev Appeal an appealable ruling.\n     *  Transfer the funds to the arbitrator.\n     *  Note that no checks are required as the checks are done by the arbitrator.\n     *  @param _extraData Extra data for the arbitrator appeal procedure.\n     */\n    function appeal(bytes _extraData) public onlyParty payable {\n        arbitrator.appeal.value(msg.value)(disputeID,_extraData);\n    }\n\n    /** @dev Execute a ruling of a dispute. It reimburse the fee to the winning party.\n     *  This need to be extended by contract inheriting from it.\n     *  @param _disputeID ID of the dispute in the Arbitrator contract.\n     *  @param _ruling Ruling given by the arbitrator. 1 : Reimburse the partyA. 2 : Pay the partyB.\n     */\n    function executeRuling(uint _disputeID, uint _ruling) internal {\n        require(_disputeID==disputeID);\n        require(_ruling<=AMOUNT_OF_CHOICES);\n\n        // Give the arbitration fee back.\n        // Note that we use send to prevent a party from blocking the execution.\n        if (_ruling==PARTY_A_WINS)\n            partyA.send(partyAFee > partyBFee ? partyAFee : partyBFee); // In both cases sends the highest amount paid to avoid ETH to be stuck in the contract if the arbitrator lowers its fee.\n        else if (_ruling==PARTY_B_WINS)\n            partyB.send(partyAFee > partyBFee ? partyAFee : partyBFee);\n        status=Status.Resolved;\n    }\n\n}\n",
  "sourcePath": "kleros-interaction/contracts/standard/arbitration/TwoPartyArbitrable.sol",
  "compiler": {
    "name": "solc",
    "version": "0.4.24+commit.e67f0147.Emscripten.clang"
  },
  "schemaVersion": "2.0.1",
  "updatedAt": "2018-08-09T01:15:48.986Z"
}